:020000040800F2
:10000000D0E70020A9010008491E00086F0C000875
:10001000691B0008FD090008915E0008000000004F
:10002000000000000000000000000000CD510008AA
:10003000010A0008000000007B020008D13A000815
:10004000C3010008C3010008C3010008C301000880
:10005000C3010008C3010008C3010008C301000870
:10006000C3010008C3010008C3010008C301000860
:10007000C3010008C3010008C3010008C301000850
:10008000C3010008C3010008C3010008000000000C
:10009000000000000000000000000000C301000894
:1000A000C3010008C3010008C3010008695A000821
:1000B000C3010008C3010008C3010008C301000810
:1000C000C3010008C3010008C3010008C301000800
:1000D000C30100082D5E0008C301000800000000F5
:1000E000C3010008C3010008C301000800000000AC
:1000F000000000000000000000000000C301000834
:1001000000000000C3010008C3010008C30100088B
:1001100000000000000000000000000000000000DF
:10012000C3010008C3010008C3010008C30100089F
:10013000C3010008000000000000000000000000F3
:10014000000000000000000000000000C3010008E3
:10015000C3010008C3010008C3010008C30100086F
:10016000C3010008C30100080000000000000000F7
:10017000000000000000000000000000000000007F
:1001800000000000C30100080000000000000000A3
:10019000C3010008DFF80CD000F0B4FB00480047B2
:1001A000E16F0008D0E70020064880470648004776
:1001B000FEE7FEE7FEE7FEE7FEE7FEE7FEE7FEE717
:1001C000FEE7FEE7015A000895010008EFF30981F8
:1001D00021B120ED108A42490A6810607047B0ECE6
:1001E000108A40490A681060704772B602B4EFF393
:1001F000118180F31188BFF34F8FBFF36F8F0846D3
:1002000002BC62B6704772B680F31188BFF34F8F9D
:10021000BFF36F8F62B6704772B633484FF0FF017D
:100220000170002080F309883048016881F3088854
:1002300003F0B4F92E48012101702E482E490A78A6
:100240000270274827490A680260106880F309880D
:10025000EFF3148040F0020080F31488BFF36F8F37
:10026000BDE8F04F0FBCBDE8005006BC62B60847C1
:1002700022484FF080510160704772B640F2A002F0
:10028000C2F20002116881F31188BFF34F8FBFF3F0
:100290006F8F62B6EFF3098020E9F04F104D2968A7
:1002A0000860744603F07AF9124813490A7802701C
:1002B0000C490A682A6044F0040E1068B0E8F04F58
:1002C00080F3098840F20002C0F2000272B682F3A5
:1002D0001188BFF34F8FBFF36F8F62B67047000076
:1002E000600000206800002022ED00E0980000205F
:1002F0005A0000204F0000205000002004ED00E0D4
:1003000040EA01039B0703D009E008C9121F08C097
:10031000042AFAD203E011F8013B00F8013B521E17
:10032000F9D27047D2B201E000F8012B491EFBD28E
:1003300070470022F6E710B513460A4604461946F0
:10034000FFF7F0FF204610BD2DE9FE4F804681EA01
:100350000300C00F0C46009021F0004123F000453F
:10036000B8EB0200A94105D24046214690461C4602
:100370000B46024623F00040104347D0270DC7F339
:100380000A00C3F30A510290401A019040286BDA28
:10039000C3F3130040F4801B0098924620B1002361
:1003A000D2EB030A63EB0B0B01985946C0F14002F4
:1003B000504600F091F906460D4650465946019ABE
:1003C00000F0A9F910EB08006141002487EA1152FE
:1003D00084EAE7731A4340D0009A62B3019A012A73
:1003E0004FEA075215DC001B61EB02014FF000429F
:1003F00002EA0752CDE90042001C41F58011324665
:100400002B4600F0E0F903B0BDE8F08F40462146EE
:10041000F9E7001B61EB0201001C41F58013001895
:100420005B412018A2F5001747EB030140EAD570A5
:10043000B6196D4111E06D084FEA360645EAC07500
:100440004FEA0752001B61EB0201001C41F58011CD
:1004500049084FEA30000019514132462B4603B09B
:10046000BDE8F04F00F0A0B9009801224000002341
:10047000D0EB020263EBE073009821464FEAE07490
:10048000B8EB000061EB0401E9E783F000435BE7B0
:1004900081F0004158E72DE9FE4F81EA030404F0A2
:1004A000004421F0004100944FF0000B23F0004382
:1004B00050EA01045ED052EA03045BD0C3F30A544D
:1004C000C1F30A552C44A4F2F3340194A0FB025466
:1004D000C1F3130141F48011C3F3130343F48013F8
:1004E00001FB024400FB034E840A970A44EA81544C
:1004F00047EA8357A4FB076802958D0A05FB078529
:100500004FEA932C04FB0C542705029D4FEA065832
:1005100047EA1637B5EB08056EEB070C870E920E0F
:1005200047EA811742EA8312A7FB0201B6EB0B01EF
:1005300064EB00042B0D43EA0C335E1844EB1C50B3
:10054000DA465146E7FB0201C5F313044FEA0B33C9
:1005500043EA14534FEA0432019C43EA0603A4F130
:100560000C040294009CCDE900B400F02CF903B017
:10057000BDE8F08F00200146F9E72DE9F04D81EA52
:10058000030404F0004B21F0004514464FF0000A2C
:1005900023F0004150EA050220D054EA01021DD0A8
:1005A000C5F30A570246C5F31303C1F31300C1F3A1
:1005B0000A5640F4801543F48013A7EB0608101B7D
:1005C000D64608F2FD3873EB050002D308F10108A6
:1005D00001E092185B41B8F1000F03DA00200146F8
:1005E000BDE8F08D00204FF48011064684460EE0F1
:1005F000171B73EB050705D3121B63EB05030643BB
:100600004CEA010C49084FEA300092185B4150EA6D
:100610000107EDD152EA030012D082EA040083EA16
:100620000501084305D0101BAB4106D2012200236F
:1006300006E000224FF0004302E06FF00102531089
:100640001AEB06004CEB085110EB0A0041EB0B01D2
:10065000BDE8F04D00F0A8B80EB5C10F80EAE0701B
:100660000844CA07002140F233438DE80E000A46D1
:100670000B4600F0A8F803B000BD00F0004230F0D7
:1006800000400AD0C10D01F56071C0F3160042EAC6
:100690000151C208400711437047002001467047CE
:1006A00001F0004330B421F0004150EA010206D0CD
:1006B0000A0DA2F56072C1F31301002A02DC30BCFE
:1006C00000207047440F44EAC104C100E01830BC68
:1006D00000EBC25000F031B8202A04DB203A00FAC7
:1006E00002F1002070479140C2F1200320FA03F389
:1006F000194390407047202A04DB203A21FA02F087
:100700000021704721FA02F3D040C2F1200291404B
:10071000084319467047202A06DBCB17203A41FAD6
:1007200002F043EAE07306E041FA02F3D040C2F17E
:10073000200291400843194670470029A8BF70471E
:10074000401C490008BF20F00100704710B4B0FA07
:1007500080FC00FA0CF050EA010404BF10BC7047A2
:1007600049B1CCF1200421FA04F411FA0CF118BFBC
:10077000012121430843A3EB0C01CB1D4FEA00618B
:100780004FEA102042BF002010BC704700EBC3505E
:1007900010440029A4BF10BC7047401C490008BF8A
:1007A00020F0010010BC704710B5141E73F1000456
:1007B00008DA401C41F1000192185B411A4301D153
:1007C00020F0010010BD2DE9F04D92469B4611B17D
:1007D000B1FA81F202E0B0FA80F220329046FFF7DF
:1007E0007BFF04460F4640EA0A0041EA0B015346EC
:1007F0005A46084313D0114653EA010019D0C8F1F4
:1008000040025046FFF777FF05460E4650465946D0
:100810004246FFF761FF084305D0012004E020466F
:100820003946BDE8F08D0020054346EAE0762C43CA
:1008300037430A986305E40AA0EB08000022FD0A8A
:1008400044EA47540A3002D500200146E9E7010591
:1008500010196941DDE9084500196941BDE8F04D0D
:10086000A2E72DE9F04D00231A461B1A8A4103DB4B
:1008700000200146BDE8F08DC1F30A52C1F3130117
:1008800041F480154FF0000BD10702D100186D41E3
:10089000521E0027044640F2FF11384601EB620A5F
:1008A0003E468046024600204FF48011FFF723FFAA
:1008B000C2197141BB1846EB0100B4EB030C75EB98
:1008C000000C04D3E41A65EB000517460E46241904
:1008D00008F101006D4180463428E3DDF91946EB4B
:1008E0000600091BA84103D24FF0FF32134601E076
:1008F000002213461BEB070046EB0A51BDE8F04D02
:10090000FFF752BF064C074D06E0E06840F00103D8
:1009100094E8070098471034AC42F6D3FFF73EFC4A
:10092000647A0008847A00082DE9F04705460E46EF
:10093000174699460024AA222146641C2A4842549C
:10094000FF222146641C425403222146641C425467
:1009500007222146641C4254C5F307222146641C29
:1009600042542146641C4554C6F307222146641CA8
:1009700042542046611CCCB21B490E54C7F30722D7
:100980002046611CCCB218490A542046611CCCB2E6
:1009900015490F542046611CCCB2134901F8009050
:1009A0004FF00008C24600200AE00F49095C4144AC
:1009B00001F0FF080AEB080101F0FF0A411CC8B270
:1009C000A042F2DB2046611CCCB2074901F800804E
:1009D0002046611CCCB2044901F800A0214602481F
:1009E00006F04EFBBDE8F08728B90020704770473D
:1009F00070477047704770477047704700BFFEE709
:100A00007047F0B50A4600210023002400BF3DE0F6
:100A1000012505FA01F3156805EA03049C4234D167
:100A200005684F000326BE40B543056015794E00AA
:100A3000B5400668354305601579012D02D015795A
:100A4000022D16D185684F000326BE40B543856050
:100A500055794E00B5408668354385604568012666
:100A60008E40B5434560456896798E40B6B23543B1
:100A70004560C5684F000326BE40B543C560D579C3
:100A80004E00B540C6683543C560491C1029BFD328
:100A9000F0BD0246002013690B400BB1012000E0BD
:100AA000002070470AB1816101E00B048361704747
:100AB00010B586B0044603A800F037FABDF90C0063
:100AC00000EE100AB8EEC00ADFED350A80EE201AFB
:100AD00084ED001ABDF90E0000EE100AB8EEC00A4F
:100AE000DFED2F0A80EE201A84ED011ABDF9100007
:100AF00000EE100AB8EEC00ADFED290A80EE201AD7
:100B000084ED021ABDF9120000EE100AB8EEC00A18
:100B1000DFED240A80EE201A84ED031ABDF91400DB
:100B200000EE100AB8EEC00ADFED1E0A80EE201AB1
:100B300084ED041ABDF9160000EE100AB8EEC00AE2
:100B4000DFED180A80EE201A84ED051A01A800F0E6
:100B500033F8BDF9040000EE100AB8EEC00ADFED6C
:100B6000120A80EE201A84ED061ABDF9060000EE86
:100B7000100AB8EEC00ADFED0C0A80EE201A84EDF0
:100B8000071ABDF9080000EE100AB8EEC00ADFED42
:100B9000060A80EE201A84ED081A06B010BD000087
:100BA000000080466F1283410040884410B500F079
:100BB000D7F900F010F810BD10B50446032000F07E
:100BC00018F82080072000F014F8A080052000F01D
:100BD00010F8608010BD10B51421002000F030F82E
:100BE0002021012000F02CF80021022000F028F83C
:100BF00010BD70B5054601F067F83C2001F044F8DF
:100C000000F0EAFF284601F03FF800F0E5FF01F0B0
:100C10005BF83D2001F038F800F0DEFF00F0F8FF4F
:100C20000446002001F01AF800F0F2FF40EA042028
:100C300004B2012001F012F801F060F8204670BD06
:100C400070B505460C4601F03FF83C2001F01CF859
:100C500000F0C2FF284601F017F800F0BDFF204663
:100C600001F012F800F0B8FF01F048F870BD00BFC5
:100C7000FEE700002DE9F04F2DED0A8BB1B00546DF
:100C80000E46174698469FED6B0AB0EE408A9FEDE0
:100C9000690AF0EE408A9FED670AB0EE409A9FED38
:100CA000650AF0EE409A9FED630AB0EE40AA9FED10
:100CB000610AF0EE40AA9FED5F0AB0EE40BA9FEDE8
:100CC0005D0AF0EE40BA9FED5B0AB0EE40CA002428
:100CD000A146A24616E004A8FFF7EAFE9DED070A2A
:100CE00030EE0B0AB0EE40BA9DED080A30EE2B0A4A
:100CF000F0EE40BA9DED090A30EE0C0AB0EE40CAA3
:100D00000AF1010ABAF57A7FE5DB9FED4B0ACBEEDB
:100D1000000AC5ED000A9FED480ACBEE800AC5ED3A
:100D2000010A9FED450ACCEE000AC5ED020A6DE00E
:100D300028E004A8FFF7BCFE9DED040A30EE080A87
:100D4000B0EE408A9DED050A30EE280AF0EE408AAA
:100D50009DED060A30EE090AB0EE409A9DED0A0AB2
:100D600030EE290AF0EE409A9DED0B0A30EE0A0AA9
:100D7000B0EE40AA9DED0C0A30EE2A0AF0EE40AA31
:100D800009F10109B9F10A0FD3DBB2EE040AC8EE8A
:100D9000000A04EB44001FA901EB8000C0ED000A2B
:100DA000B2EE040AC8EE800A04EB440001EB8000B6
:100DB000C0ED010AB2EE040AC9EE000A04EB4400D9
:100DC00001EB8000C0ED020AB2EE040AC9EE800A0F
:100DD00004EB44010DA800EB8100C0ED000AB2EE67
:100DE000040ACAEE000A04EB44010DA800EB8100DE
:100DF000C0ED010AB2EE040ACAEE800A04EB440018
:100E00000DA901EB8000C0ED020A641C062C8FDBEB
:100E10004FF0060B449833465A460DA9CDE900879A
:100E200002901FA805F0F4FF31B0BDEC0A8BBDE8BD
:100E3000F08F0000000000000000FA432DE9F84F99
:100E400004460D4616461F46DDE90EB9DDE90A8A5D
:100E50002046FFF72DFE94ED000AD5ED000A30EE96
:100E6000600AD7ED000A20EE200A84ED000A94ED16
:100E7000010AD5ED010A30EE600AD7ED010A20EE35
:100E8000200A84ED010A94ED020AD5ED020A30EE43
:100E9000600AD7ED020A20EE200A84ED020A94EDE2
:100EA000030AD9ED000A30EE600A84ED030A94EDDE
:100EB000040AD9ED010A30EE600A84ED040A94EDCB
:100EC000050AD9ED020A30EE600A84ED050A94EDB8
:100ED000060AD6ED000A30EE600AD8ED000A20EED0
:100EE000200A84ED060A94ED070AD6ED010A30EED9
:100EF000600AD8ED010A20EE200A84ED070A94ED7D
:100F0000080AD6ED020A30EE600AD8ED020A20EE99
:100F1000200A84ED080ACDF800B021465046DDE9EC
:100F20000C2300F07FF8BDE8F88F10B504463B2095
:100F300000F03AF820803D2000F036F860803F2035
:100F400000F032F8A080432000F02EF8E080452029
:100F500000F02AF82081472000F026F8608110BDBB
:100F600010B500F003FE01216B2000F044F80021D1
:100F70006C2000F040F80121192000F03CF801211C
:100F80001A2000F038F818211B2000F034F8002156
:100F90001C2000F030F800216A2000F02CF802211B
:100FA000372000F028F810BD70B5054600F08CFE23
:100FB000D02000F069FE00F00FFE284600F064FE2D
:100FC00000F00AFE00F080FED12000F05DFE00F08F
:100FD00003FE00F01DFE0446002000F03FFE00F07E
:100FE00017FE40EA042004B2012000F037FE00F0B2
:100FF00085FE204670BD70B505460C4600F064FEC7
:10100000D02000F041FE00F0E7FD284600F03CFE55
:1010100000F0E2FD204600F037FE00F0DDFD00F0BC
:101020006DFE70BD2DE9F0412DED108BAEB0054683
:101030000C4616461F46DDF810819FEDFE0B05F0AD
:101040002FFD8DED020B9FEDFD0B53EC102B9DED55
:10105000020B51EC100BFFF71EFA9FEDFA0B53EC4D
:10106000102BCDE904019DED040B51EC100BFFF7A3
:1010700012FACDE906019DED060B51EC100BFFF7BE
:101080000FFB2D9094ED030A10EE101A0846FFF79F
:10109000F4FA9FEDEE0B53EC102BCDE902019DED20
:1010A000020B51EC100BFFF7F6F99FEDEA0B53EC36
:1010B000102BCDE904019DED040B51EC100BFFF753
:1010C0005CFACDE906019DED060B51EC100BFFF724
:1010D000E7FA2C9094ED040A10EE101A0846FFF778
:1010E000CCFA9FEDDA0B53EC102BCDE902019DED0C
:1010F000020B51EC100BFFF7CEF99FEDD60B53EC22
:10110000102BCDE904019DED040B51EC100BFFF702
:1011100034FACDE906019DED060B51EC100BFFF7FB
:10112000BFFA2B9094ED050A10EE101A0846FFF74F
:10113000A4FA9FEDC60B53EC102BCDE902019DEDF7
:10114000020B51EC100BFFF7A6F99FEDC20B53EC0D
:10115000102BCDE904019DED040B51EC100BFFF7B2
:101160000CFACDE906019DED060B51EC100BFFF7D3
:1011700097FA2A9094ED000A8DED290A94ED010A60
:10118000F0EE40FA94ED020A8DED280A94ED060A7D
:10119000F0EE40DA94ED070AB0EE40BA94ED080A9A
:1011A000F0EE40BA95ED000BB0EE401AF0EE601A8A
:1011B00051EC100BFFF774FA09EE900A95ED020B53
:1011C000B0EE401AF0EE601A51EC100BFFF768FA1F
:1011D00009EE100A95ED040BB0EE401AF0EE601A1D
:1011E00051EC100BFFF75CFA08EE100A95ED060BB8
:1011F000B0EE401AF0EE601A51EC100BFFF750FA07
:1012000008EE900AF1EE490A9DED2C0A20EE800AC4
:10121000DDED2B0A08EE600ADDED2A0A08EEE00A91
:10122000F6EE000A20EE200A8DED1E0A9DED2C0A36
:1012300029EE800ADDED2A0A08EE200ADDED2B0AF0
:1012400008EEE00AF6EE000A20EE200A8DED1D0AF7
:101250009DED2B0A29EE800ADDED2A0A09EE600ACF
:10126000DDED2C0A08EEA00AF6EE000A20EE200AB8
:101270008DED1C0A9DED2A0A29EE800ADDED2B0A70
:1012800009EE200ADDED2C0A08EE600AF6EE000AEF
:1012900020EE200A8DED1B0A9DED290AB5EEC00A4D
:1012A000F1EE10FA0BD1F5EEC0FAF1EE10FA06D11C
:1012B0009DED280AB5EEC00AF1EE10FA7ED0DDED04
:1012C000290A60EEA00A4FEEAF0A9DED281A41EE02
:1012D000010AB0EE600A05F065FEB0EE40CA9DED71
:1012E000290A20EE0C0A8DED290A2FEE8C0AF0EE69
:1012F00040FA9DED280A20EE0C0A8DED280A6DEECD
:10130000AD0A4BEE0B0A4BEEAB0AB0EE600A05F0ED
:1013100049FEB0EE40CA2DEE8C0AF0EE40DA2BEE1C
:101320000C0AB0EE40BA2BEE8C0AF0EE40BAB0EEEA
:10133000000A29EE800A20EE2D0A8DED180AB0EE83
:10134000000A29EE800A20EE0B0A8DED170AB0EE96
:10135000000A29EE800A20EE2B0A8DED160AB0EE67
:10136000000A29EE000A20EE2D0A8DED150AB0EED6
:10137000000A29EE800A8DED120AB0EE000A29EE6D
:10138000000A8DED110AB0EE000A28EE000A8DED7C
:10139000100AB0EE000A28EE800A8DED0F0AB0EEBA
:1013A000000A29EE800A20EE080A8DED0E0AB0EE42
:1013B000000A28EE000A20EE280A00E0C7E28DEDC0
:1013C0000D0A29EEA90A8DED0C0A69EE89EA29EECB
:1013D00088FA29EEA80A8DED0B0A29EE09EA29EE12
:1013E000080A8DED0A0A29EE28DA68EE08CA28EE06
:1013F000280A8DED090A28EEA80A8DED080A9DED50
:101400000C0A2DEE800ADDED170A00EEE80ADDED8C
:10141000160A00EE880A0DEE8E0ADDED110A60EE66
:101420008B0A00EE880ADDED110A60EEAB0A00EED1
:10143000A80A13E0000000000000E83F0000006080
:10144000FB21094000000020C7719C3F182D445427
:10145000FB21094000000000008066400DEEEC0A10
:10146000DDED080A0DEEE00A8DED1A0A9DED180A71
:1014700020EE280ADDED0C0A0BEE200ADDED160A3F
:1014800000EEC90ADDED150A00EE880A0BEE4E0AE1
:101490000BEE2C0ADDED100A60EEAB0A00EEA80A96
:1014A000DDED080A0BEE600A8DED190A9DED1A0AB2
:1014B00060EE000A9DED190A40EE000A10EE901A47
:1014C0000846FFF7DAF8CDE904019DED040B05F0BD
:1014D000E7FA8DED060B9DED060B51EC100BFFF7B7
:1014E000DFF80AEE100A9DED180AB1EE400A60EE30
:1014F000080A9DED170A40EE090A9DED0C0A4BEE15
:10150000800A9DED150A40EE280AB0EE600A0BEE47
:10151000CE0ADDED100A60EE8B0A00EEA80AF0EEAE
:10152000400A4BEEEC0A9DED080AF0EE60AA4BEE85
:1015300080AAB0EE000A6AEE000ACDED140AB0EE01
:10154000000A2AEE800A8DED130A9DED0E0AF0EED8
:10155000000A10EE8D0ADDED290A70EE600A9DED9D
:10156000100AB1EE400A20EE801A9DED0D0AF0EE51
:10157000000A00EEAE0A70EE6F1ADDED110AB0EE51
:10158000410A00EEA10AF6EE000A30EEEC1ADDED9B
:10159000080A71EE600A60EE8A0A3DEE4F1A4AEEC2
:1015A000810A70EEED0A2AEE881A01EE600AF1EE69
:1015B0004A0A60EEA81A4AEE891ADDED0A0A9DED84
:1015C0000B1A70EEC10A20EE8A1ADDED090A7EEED2
:1015D000A00A0AEEA01A71EE4B0A01EEA00A7FEEF5
:1015E0000D0A60EE8A0AB6EE001A31EE4E1A31EE9E
:1015F0006C1A4AEE810A70EEEB0A2AEE081A01EE26
:10160000200A8DED220A9DED0E0AF0EE000A10EE82
:101610008D0ADDED290A70EE600A9DED0F0A20EEBD
:10162000801A9DED0D0AF0EE000A00EEAE0A70EE93
:101630006F1ADDED120AB0EE410A00EEA10AF7EED4
:10164000000AB0EE001A41EE4E0AB0EE001A41EE6A
:101650006C0A9DED281A70EEC10AB1EE001A29EE4F
:10166000011A01EE600AF6EE000A30EEEC1ADDED2A
:10167000080A71EE600A60EE8A0A3DEE4F1A4AEEE1
:10168000810A70EEED0A2AEEA81A01EE200A6AEE2F
:10169000081A4AEEA91ADDED0A0A9DED0B1A70EE42
:1016A000C10A20EE8A1ADDED090A7EEEA00A0AEED2
:1016B000A01A71EE4B0A01EEA00A2AEE281ADDEDFF
:1016C000130A00EEC91A7FEE0D0A60EE8A0AF6EEE2
:1016D000001A71EECE1A71EEEC1A4AEEA10A70EE03
:1016E000EB0A01EE200A8DED210A9DED0E0AF0EEC7
:1016F000000A10EE8D0ADDED290A70EE600A9DEDFC
:10170000120AB1EE400A20EE801A9DED0D0AF0EEAD
:10171000000A00EEAE0A70EE6F1ADDED0F0AB0EEB1
:10172000410A00EEA10AF7EE000AB0EE001A41EEFF
:101730004E0AB0EE001A41EE6C0A9DED281A70EECA
:10174000C10AB1EE001A28EE011A01EE600ADDEDC1
:10175000140AF1EE600A20EE881A0AEEE91AF6EE93
:10176000000A70EEEC1ADDED080A71EEE00A60EE98
:101770008A0A7DEE4F1A4AEEA10A70EEED0A01EEDA
:10178000200A6AEE091A4AEEA81ADDED0A0A9DED52
:101790000B1A70EEC10A20EE8A1ADDED090A7EEE00
:1017A000A00A0AEEA01A71EE4B0A01EEA00A2AEE78
:1017B000291ADDED130A00EEC81A7FEE0D0A60EE5D
:1017C0008A0AF6EE001A71EECE1A71EEEC1A4AEEA3
:1017D000A10A70EEEB0A01EE200A8DED200A9DEDC4
:1017E0000E0AF0EE000A10EE8D0ADDED290A70EE09
:1017F000600A9DED110A60EE800A9DED0D0AB0EEC3
:10180000001A01EE2E0A70EE6F1A9DED101AB0EE5E
:10181000600A01EE210ADDED140AF1EE600A60EEC5
:10182000A80A4AEE890AB6EE001A71EE6C1A9DED0E
:10183000081A31EEC11A21EE0A1A7DEE4F1A0AEE8D
:10184000A11A31EE6D1A00EE810AF1EE4A0A60EE3D
:10185000A90A4AEE880A9DED0A1ADDED0B1A31EE4F
:10186000611A21EE0A1ADDED091A7EEEA11A0AEEBE
:10187000A11A31EE4B1A00EE810A7FEE0D0A60EEDE
:101880008A0AB6EE001A31EE4E1A31EE6C1A4AEEA2
:10189000810A70EEEB0A2AEE091A01EE200A8DED9C
:1018A0001F0ADDED220A60EEA00A9DED211A41EE2D
:1018B000010A9DED201A41EE010A9DED1F1A41EE2D
:1018C000010AB0EE600A05F06DFBB0EE40CA9DED76
:1018D000220A20EE0C0A8DED220A9DED210A20EE4F
:1018E0000C0A8DED210A9DED200A20EE0C0A8DEDEB
:1018F000200A9DED1F0A20EE0C0A8DED1F0A9DEDBA
:101900001E0ADDED2D0A9DED221A00EEC10A8DEDB5
:101910001E0A9DED1D0ADDED2D0A9DED211A00EE3A
:10192000C10A8DED1D0A9DED1C0ADDED2D0A9DED10
:10193000201A00EEC10A8DED1C0A9DED1B0ADDED9B
:101940002D0A9DED1F1A00EEC10A8DED1B0A9DEDBB
:101950001E0A9FED821AF0EE690A40EE010AF0EECF
:10196000609A9DED1D0A9FED7D1AF0EE490A40EE4A
:10197000010AB0EE609A9DED1C0A9FED781AF0EE18
:10198000480A40EE010AB0EE608A9DED1B0A9FED09
:10199000731AF0EE680A40EE010AF0EE608A69EE12
:1019A000A90A49EE090A48EE080A48EEA80AB0EE6C
:1019B000600A05F0F7FAB0EE40CA29EE8C0AF0EEA4
:1019C000409A29EE0C0AB0EE409A28EE0C0AB0EECE
:1019D000408A28EE8C0AF0EE408A19EE900AFEF753
:1019E0004CFEC5E9000119EE100AFEF746FEC5E9F6
:1019F000020118EE100AFEF740FEC5E9040118EED8
:101A0000900AFEF73AFEC5E9060129EE280A09EE1A
:101A1000C80AF0EE000A20EE200A8DED270A29EE12
:101A2000890A08EE280AF0EE000A20EE200A8DED61
:101A3000260A29EEA90A09EE490A08EE480A08EE24
:101A4000A80A8DED250A29EE080A09EEA80AF0EE8B
:101A5000000A20EE200A8DED240A29EEA90A09EEDB
:101A6000090A08EE480A08EEE80A8DED230A2798CD
:101A7000FEF703FECDE900019DED000B04F0FCFB39
:101A80008DED020B9DED020B51EC100B81F000412E
:101A90009FED330B53EC102BCDE904019DED040BAE
:101AA00051EC100BFEF7F7FCCDE906019DED060B9E
:101AB00051EC100BFEF7F4FD30602598FEF7DDFDCC
:101AC000CDE902012698FEF7D8FDCDE900019DED94
:101AD000021B9DED000B04F0EBFE8DED040B9FED62
:101AE000200B53EC102B9DED040B51EC100BFEF76B
:101AF000D2FCCDE906019DED060B51EC100BFEF773
:101B0000CFFD38602398FEF7B8FDCDE90201249897
:101B1000FEF7B3FDCDE900019DED021B9DED000B2D
:101B200004F0C6FE8DED040B9FED0D0B53EC102B56
:101B30009DED040B51EC100BFEF7ADFCCDE9060159
:101B40009DED060B51EC100BFEF7AAFDC8F8000046
:101B50002EB0BDEC108BBDE8F08100000AD7A33B8E
:101B600000000060E3A54C4000BFFEE71848006895
:101B700040F00200164908601648006820F4702002
:101B8000144908600846006840F4A0200860081D59
:101B9000006840F44070091D0860081D006840F4AA
:101BA0002020091D0860081D006820F47020091D10
:101BB000086008481430006840F48070054914310A
:101BC00008600846006840F4007008607047000034
:101BD000303802400004024010B5012251020B4887
:101BE000FEF760FF012211020848FEF75BFF4FF489
:101BF00000710648FEF74DFF044600224FF4807145
:101C00000248FEF74FFF204610BD000000040240CE
:101C100070B50025012251020F48FEF743FF002452
:101C200016E0012211020C48FEF73CFF4FF4007150
:101C30000948FEF72EFF012802D1802020410543EC
:101C400000224FF480710448FEF72CFF601CC4B2E0
:101C5000082CE6DB284670BD0004024010B504469F
:101C600022464FF400710748FEF71CFF01221102C3
:101C70000448FEF717FF00224FF480710148FEF779
:101C800011FF10BD0004024070B50546002415E0A8
:101C90008020204100EA05024FF400710948FEF758
:101CA00001FF012211020748FEF7FCFE00224FF45B
:101CB00080710448FEF7F6FE601CC4B2082CE7DB16
:101CC00070BD00000004024010B5012251020A4814
:101CD000FEF7E8FE012211020748FEF7E3FE0022AC
:101CE0004FF400710448FEF7DDFE00224FF48071CE
:101CF0000148FEF7D7FE10BD0004024010B50022D7
:101D00004FF400710648FEF7CDFE0122110204488F
:101D1000FEF7C8FE012251020148FEF7C3FE10BDC6
:101D200000040240404A126842F010023E4B1A6022
:101D30003D4A143A126842F002023B4B143B1A60CF
:101D40003A4A126822F47042384B1A601A461268F6
:101D500042F420421A60354A0832126822F4405296
:101D6000324B08331A601A46126842F400521A6065
:101D70001A1D126842F480521B1D1A602B4A203231
:101D8000126842F0E062294B20331A601A4612684A
:101D900042F0E0421A60264A928922F40042244B23
:101DA0009A811A46928922F480529A811A4692891F
:101DB00042F00C029A811A46128A22F440521A8288
:101DC000DFED1C0AB0EE600AFCEEC00A10EE900ACD
:101DD00000EE900AF8EE600A70EE600AB3EE001AA8
:101DE00060EE810AFCEEE00A10EE901A41EA001261
:101DF0001A81114A126842F020024FF0E023C3F822
:101E000004210B4A928942F02002094B9A810B4A25
:101E10000B4B1A60F0230B4A1370054A928942F467
:101E20000052034B9A81704744380240000402403C
:101E3000001001400000364304E100E00005FA050F
:101E40000CED00E025E400E0704770B500240EE0E2
:101E50000021204600F0E9F8002504E0002000F011
:101E6000C4F9681CC5B2802DF8DB601CC4B2082C14
:101E7000EEDB70BD1CB50121084602F0BFFA01205F
:101E80008DF804008DF8060003208DF80500202051
:101E9000009069460948FEF7B4FD4020009069466D
:101EA0000648FEF7AEFD012220210448FEF7FAFDA8
:101EB000012240210148FEF7F5FD1CBD0000024053
:101EC00070B50546002413E08020204100EA050299
:101ED00040210E48FEF7E6FD012220210B48FEF7C7
:101EE000E1FD002220210948FEF7DCFD601CC4B2A0
:101EF000082CE9DB012220210448FEF7D3FD002253
:101F000020210248FEF7CEFD70BD00000000024017
:101F100010B5012240210948FEF7C4FD012220210D
:101F20000648FEF7BFFD002240210448FEF7BAFD37
:101F3000002220210148FEF7B5FD10BD000002403F
:101F400010B5002240210748FEF7ACFD01222021F8
:101F50000448FEF7A7FD012240210248FEF7A2FD3A
:101F600010BD00000000024070B5002406E000250E
:101F700000E06D1CB5F57A7FFBD3641CB4F57A7F65
:101F8000F5D3FFF777FFAE2000F01FF9D52000F062
:101F90001CF9802000F019F9A82000F016F93F2064
:101FA00000F013F9D32000F010F9002000F00DF933
:101FB000402000F00AF9A12000F007F9C82000F045
:101FC00004F9DA2000F001F9122000F0FEF8812077
:101FD00000F0FBF8CF2000F0F8F8D92000F0F5F879
:101FE000F12000F0F2F8DB2000F0EFF8302000F0F4
:101FF000ECF8A42000F0E9F8A62000F0E6F88D2027
:1020000000F0E3F8142000F0E0F8AF2000F0DDF875
:10201000FFF71BFF70BD10B50246012000E05043E2
:102020000B1EA1F10101FAD110BD70B505460C4699
:1020300045F0B00000F0C9F8102141EA141000F09A
:10204000C4F804F00F0000F0C0F870BD2DE9F041B5
:1020500005460E461746721ED206110E6A1E52061D
:10206000100EFFF7E2FF002409E0A7F12001134A58
:1020700002EB0111085D00F0B8F8601CC4B2082C36
:10208000F3DB721ED206110E6A1E012303EB42021D
:10209000D0B2FFF7CAFF00240BE0A7F12001074AE6
:1020A00002EB011204F10801505C00F09EF8601C84
:1020B000C4B2082CF1DBBDE8F08100009672000884
:1020C0002DE9F0472DED028B82460D46B0EE408A99
:1020D00091460026B5EEC08AF1EE10FA04D2012630
:1020E000B1EE480AB0EE408ABCEEC80A10EE104AC3
:1020F00000EE104AB8EE400A78EE408A36B12D2242
:1021000029465046FFF7A2FF681CC5B201232246AC
:102110002946504600F037F80EB1012200E00022B7
:10212000681C1044C1B22E225046FFF78FFF0027D3
:1021300023E0B2EE040A28EE800AF0EE408ABCEEFC
:10214000E80A10EE100A00F0FF08A81C38440EB18F
:10215000012300E000231844C1B208F13000C2B2EC
:102160005046FFF773FF00EE108AB8EE400A38EED3
:10217000C00AF0EE408A781CC7B24F45D9DBBDECEF
:10218000028BBDE8F0872DE9F04780460E461746E2
:102190001D46002415E0281B411E0A20FFF73BFFC7
:1021A000B7FBF0F00A21B0FBF1F201FB120000F1E5
:1021B00030093019C1B24A464046FFF747FF601C5C
:1021C000C4B2AC42E7DBBDE8F08710B50446FFF7C8
:1021D0009FFE7820FFF774FE0020FFF771FE204677
:1021E000FFF76EFEFFF7ACFE10BD10B50446FFF71B
:1021F0008FFE7820FFF764FE4020FFF761FE204647
:10220000FFF75EFEFFF79CFE10BD00001D481E4854
:102210001E481F481F48204820482148214822487E
:10222000224823482348244824482548254826484E
:1022300026482748274828482848294829482A481E
:102240002A482B482B482C482C482D482D482E48EE
:102250002E482F482F4830483048314831483248BE
:10226000324833483348344834483548354836488E
:10227000364837483748384838483948394800BF21
:102280007047000020720008247200082A720008BB
:102290002C720008287200082E72000830720008A4
:1022A0003272000834720008367200083872000872
:1022B0003A7200083C7200083E7200084072000842
:1022C0004272000844720008467200084872000812
:1022D0004A7200084C7200084E72000850720008E2
:1022E00052720008547200085672000858720008B2
:1022F0005A7200085C7200085E7200086072000882
:102300006272000864720008667200086872000851
:102310006A7200086C7200086E7200087072000821
:102320007272000876720008787200087A720008EB
:102330007C72000870B00020F0B4002082720008A7
:102340008472000886720008887200088A72000889
:102350008C7200088E720008907200089272000859
:102360007E720008947200082DE9F04105460E4681
:10237000144600271DB904202070BDE8F08116B96D
:102380000C202070F9E71748007810B11220207057
:10239000F3E72878012808D0022807D0032802D0C4
:1023A000042804D100E000BF00BF00BF02E001200C
:1023B0002070E2E700BF00BF4020FDF716FF074690
:1023C00000BF6E6100BF3846FDF71DFF00BF25B19D
:1023D0001EB13146284602F0FFFF0020207000BFEA
:1023E000CBE700004D00002010B500F019F801F017
:1023F000EBFC01F017FD01F037FD01F0B5FC01F039
:1024000075FC01F0CBFD01F0F5FD01F06DFD01F073
:1024100093FD01F01BFA00F031F8FFF7F7FE10BD55
:1024200010B510484FF4807202E0521E002308C01D
:10243000002AFAD10C4B0D4C236023461B6823F075
:10244000070323600A4B196801F04043B3F1404F82
:1024500001D000BFFEE70023064C23804023064C3A
:10246000236010BD28B5002028B900209800002066
:1024700034EF00E09C000020A00000207047000026
:1024800010B50848007801280AD107480078FF28CD
:1024900004D205480078401C0349087002F04AFB4A
:1024A00010BD00005A0000204D00002010B500248F
:1024B00022480078012840D100BF4020FDF795FE5A
:1024C000044600BF1E48007820B11D480078401E19
:1024D0001B4908701A48007840BB1A48007810BBA6
:1024E00001F0F0FD18481949097850F82100184901
:1024F00008601648007817490978884210D01448B7
:102500000068006C401C12490968086412480068A1
:10251000401C1149086002F059FBFDF7A9FE07E0D5
:1025200002F03AFB04E002F037FB01E002F034FB7A
:1025300000BF2046FDF767FE00BF10BD5A00002017
:102540004D0000204E000020B0A6002050000020CA
:10255000680000204F000020340000202DE9F041E9
:1025600004460E460027FF2C06D03F2C04D32A2019
:1025700030700020BDE8F0812848007818B11020A4
:1025800030700020F6E700BF4020FDF72EFE074622
:1025900000BFFF2C10D0224850F8240040B100BFEB
:1025A0003846FDF730FE00BF282030700020E1E7FC
:1025B00001201B4941F824001A48056875B9FF2C11
:1025C00003D00020164941F8240000BF3846FDF72B
:1025D0001AFE00BF042030702846CBE7114800687F
:1025E00040681049086000BF3846FDF70CFE00BF88
:1025F00004202870FF2040EA042028810020686021
:1026000009A06861284601F063FB294628206A6911
:1026100002F036FE002030702846ABE74D00002067
:10262000B0A60020380000203F0000002DE9FE4F3A
:1026300005468B461746002001901DB904203870CE
:10264000BDE8FE8F2878042802D001203870F7E713
:102650009248007810B102203870F1E79048007875
:1026600010B10D203870EBE700BF4020FDF7BDFD35
:10267000019000BF28894FEA2028287AFF2826D118
:10268000288900F47F40288128898649096891F8C3
:102690003A1008432881834800686860B8F1FF0F4A
:1026A0000DD08048006890F83A00404507DC00BF34
:1026B0000198FDF7A8FD00BF7820387006E000BF44
:1026C0000198FDF7A0FD00BF00203870B8E7B8F111
:1026D000FF0F77D0287A02906C6894F83A00404552
:1026E00070DD7048006890F83A10029881427FDAF5
:1026F00094F83C906C4810F8090094F83D1008409C
:10270000B0B1694810F8090094F83D108843664953
:1027100001F80900084610F8090030B994F83E1095
:10272000624800788843614908704FF0010A19E057
:10273000E669AEB194F83C9006F10B0010F8090080
:1027400094F83D10884306F10B0101F80900084692
:1027500010F8090020B9B07A94F83E108843B0729E
:102760004FF0000A84F83A80204602F047FC4246C7
:10277000014600902C2002F08FFA14F83A0FC01096
:10278000A070207800F007006070A17801208840D8
:102790002071617801208840E0703A3CBAF1010F65
:1027A00011D13C34A0784149097808433F49087069
:1027B00020783D49085C6178084314F83C193A4A8E
:1027C000505412E014E0E6697EB1B07A3C34A1784E
:1027D0000843B072217806F10B00405C6178084331
:1027E00014F83C2906F10B018854314840F8284080
:1027F0002C48006890F8380040F01000294909681A
:1028000081F8380000202749096881F839002548F7
:102810000068C0F834B0284601F016FA00BF0198ED
:10282000FDF7F1FC00BF01F00DFC00BF4020FDF7FB
:10283000DCFC019000BF1B48006890F8390020B113
:10284000012809D0022806D102E0002038700BE0F0
:102850000E20387008E000BF29461248006801F0D9
:10286000BFF90A20387000BF00BF00200D49096879
:1028700081F838000B49096881F83900094909686D
:10288000C86108490968086206490968486200BFCA
:102890000198FDF7B8FC00BF00BFD1E64D00002055
:1028A0004E00002060000020520000205100002057
:1028B000B0A600202DE9F041044600273A480078F0
:1028C00010B10520BDE8F0810CB90420FAE72078AA
:1028D000042801D00120F5E700BF4020FDF785FC6A
:1028E000074600BF20890512267A304960680968CA
:1028F000884206D000BF3846FDF785FC00BF642043
:10290000E0E7FF2D18D02948006890F83A00A84267
:102910000ED12648006802F071FB804632464146DF
:102920002D2002F0B9F931462048006800F042F845
:1029300001201F4941F82500A07A38B30023102256
:102940001946204601F0FEF80646208900F47F4033
:102950002081208930432081154850F8260060608E
:10296000FF2D0AD0AE4208DC00BF3846FDF74BFC15
:1029700000BF01F067FB7820A4E700BF3846FDF7F1
:1029800042FC00BF01F05EFB00209BE7208940F085
:10299000FF0020810020606000BF3846FDF733FC57
:1029A00000BF00208EE700004D00002060000020E6
:1029B000B0A6002070B504460D4694F83C601E4851
:1029C000805D94F83D1088431B498855204602F0ED
:1029D000E5FC1948805D30B994F83E10174800783E
:1029E00088431649087004F83A5F15480570C5F326
:1029F000C200A07005F007006070A1780120884037
:102A00002071617801208840E07020790B490978B5
:102A100008430A490870A0780749085CE178084330
:102A2000A1783A3C044A5054064840F825402046D4
:102A300002F0A6FC70BD00005200002051000020F2
:102A40004F000020B0A6002010B500240D480078EB
:102A5000012816D100BF4020FDF7C7FB044600BF88
:102A60000948007840B909480078FF2804D207488F
:102A70000078401C0549087000BF2046FDF7C3FBE5
:102A800000BF10BD5A0000204D0000204E00002065
:102A900010B500241748007801282AD100BF402033
:102AA000FDF7A3FB044600BF13480078E0B91348C4
:102AB0000078A0B111480078401E104908700846FF
:102AC000007838B900BF2046FDF79DFB00BF01F03C
:102AD000B9FA0EE000BF2046FDF795FB09E000BF04
:102AE0002046FDF790FB04E000BF2046FDF78BFB7E
:102AF00000BF10BD5A0000204D0000204E000020F5
:102B000070B5054600261548007808B1002070BD54
:102B100000BF4020FDF769FB064600BF104804686F
:102B2000006820B10E48006840680D49086000BF89
:102B30003046FDF768FB00BF74B10320207025818B
:102B40000020606007A06061204601F0C1F82146C6
:102B50002E20626902F094FB2046D8E74D00002049
:102B6000380000203F0000002DE9F04105460E46E8
:102B7000144600271DB904202070BDE8F081287894
:102B8000032802D001202070F7E73A48007810B1FE
:102B900002202070F1E73848007810B10D20207035
:102BA000EBE700BF4020FDF720FB074600BF288968
:102BB00050B12889401E288100BF3846FDF723FB0D
:102BC00000BF00202070D8E72C48006890F838003B
:102BD00040F001002949096881F8380000202749A0
:102BE000096881F83900254800684663284601F0E5
:102BF0002BF800BF3846FDF706FB00BF01F022FAB4
:102C000000BF4020FDF7F1FA074600BF1B480068EF
:102C100090F8390020B1012809D0022806D102E03D
:102C2000002020700BE00E20207008E000BF294635
:102C30001248006800F0D4FF0A20207000BF00BFD7
:102C400000200E49096881F838000C49096881F8AC
:102C500039000A490968C8610849096808620749D2
:102C60000968486200BF3846FDF7CDFA00BF00BFD3
:102C700083E700004D0000204E000020600000208F
:102C800070B5044600250CB9042070BD20780328D7
:102C900001D00120F9E700BF4020FDF7A6FA054664
:102CA00000BFA07A70B1002301221946204600F02F
:102CB00049FF00BF2846FDF7A6FA00BF01F0C2F9A0
:102CC0000020E2E720894FF6FF71884209D220896F
:102CD000401C208100BF2846FDF795FA00BF002068
:102CE000D3E700BF2846FDF78EFA00BF3320CCE7BC
:102CF00010B50B48007890B901F0E4F90948007864
:102D00000949087009480749097850F8210008491D
:102D100008600846006807490860FDF77DFA10BDA5
:102D20005A000020500000204F000020B0A60020D4
:102D3000680000206000002010B504462046FDF722
:102D400055FE10BD2DE9FE4F06460F4690461C4627
:102D50004FF000093F2C02D92A20BDE8FE8F00BFAA
:102D60004020FDF742FA814600BF3848007830B174
:102D700000BF4846FDF747FA00BF3C20EDE7344866
:102D800050F82400002859D10120314941F824008D
:102D900000BF4846FDF737FA00BF002342463946D8
:102DA000304600F07DFA82460020009001900346F4
:102DB000024651460290204601F09AF9054665BB4D
:102DC000234850F8240008B3214951F8240001F0A9
:102DD000D9FD1F4850F82400C068DFF874C0009087
:102DE0005CF824C0DCF80830DFF864C05CF824C06C
:102DF0009CF83A20DFF858C05CF824C0DCF8541086
:102E0000DFF84CC05CF8240002F0E8F911480078C3
:102E1000012811D101F016F90EE000BF4020FDF7A6
:102E2000E4F9814600BF0020094941F8240000BFB1
:102E30004846FDF7E8F900BF28468EE700BF484640
:102E4000FDF7E1F900BF282087E700004D000020D2
:102E5000B0A600205A0000202DE9F04F85B0814631
:102E60008A4693461C46DDE90F78129D00200390A8
:102E70003F2C03D92A2005B0BDE8F08F00BF4020C9
:102E8000FDF7B3F9039000BF3A48007830B100BFB6
:102E90000398FDF7B8F900BF3C20ECE7364850F83E
:102EA000240000285ED10120334941F8240000BFEE
:102EB0000398FDF7A8F900BF2A464146384601F0BD
:102EC00087FA2B465A465146484600F0E9F90490E5
:102ED0001198CDE9008002953A4620460E9B049950
:102EE00001F006F9064666BB234850F8240008B3F3
:102EF000214951F8240001F045FD1F4850F82400F5
:102F0000C068DFF874C000905CF824C0DCF80830BA
:102F1000DFF864C05CF824C09CF83A20DFF858C0A1
:102F20005CF824C0DCF85410DFF84CC05CF82400D6
:102F300002F054F911480078012811D101F082F80B
:102F40000EE000BF4020FDF750F9039000BF0020C5
:102F5000094941F8240000BF0398FDF754F900BF68
:102F6000304688E700BF0398FDF74DF900BF2820E1
:102F700081E700004D000020B0A600205A0000208C
:102F800010B504462046FDF732FD10BD2DE9F04195
:102F9000054600275648007810B14020BDE8F08172
:102FA0003F2D01D13E20F9E73F2D03D3FF2D01D066
:102FB0002A20F3E700BF4020FDF717F9074600BFBE
:102FC000FF2D03D14B48006890F83A504A4850F81A
:102FD000254034B900BF3846FDF715F900BF43203E
:102FE000DCE7012C06D100BF3846FDF70CF900BF25
:102FF0003D20D3E714F83C0F4049085C61788843D2
:1030000014F83C193D4A5054204602F0C7F994F890
:103010003C003A49085C30B994F83E1038480078D2
:10302000884337490870E06918B12046E16900F02B
:10303000D7FD206A18B12046216A00F0E8FDE66A53
:1030400016B1304600F07EFE0020606384F8380040
:1030500084F839002B480078FF2804D229480078EA
:10306000401C2849087000BF3846FDF7CCF800BF67
:1030700000F067FD00BF4020FDF7B7F8074600BF2E
:103080002048007820B11F480078401E1D49087074
:10309000204600F043F81C480078401E1A4908708A
:1030A0000020154941F82500A06930B90020616968
:1030B000886116496069086005E0D4E90501486146
:1030C000D4E9051088611248006860611048046006
:1030D00010A0606500BF3846FDF795F800BF0E48A8
:1030E0000078012801D100F0ADFF002056E7000074
:1030F0004D00002060000020B0A6002052000020FB
:10310000510000204E0000205B0000206C000020D9
:10311000640000203F0000005A00002010B5044663
:103120002046FDF765FC10BD10B5FDF762FC10BD33
:103130002DE9F84306460F4615464FF000083F2E8E
:1031400005D9FF2E03D02A202870BDE8F88317B9CF
:103150000C202870F9E71E48007810B11220287062
:10316000F3E700BF4020FDF740F8804600BFFF2E88
:1031700003D11848006890F83A60174850F8264084
:103180003CB900BF4046FDF73EF800BF4320287021
:10319000DBE7012C07D100BF4046FDF734F800BF44
:1031A00043202870D1E7676544B1E068009094F847
:1031B0003A202046A368616D02F03CF900BF40460A
:1031C000FDF721F800BF0020287000BFBDE7000018
:1031D0004D00002060000020B0A6002010B504467D
:1031E0002046FDF707FC10BD10B5FDF704FC10BD2F
:1031F0002DE9F04706460C464FF0000A3F2E04D951
:10320000FF2E02D02A20BDE8F0870CB90920FAE78A
:1032100000202060606000BF4020FCF7E6FF82468F
:1032200000BFFF2E03D11C48006890F83A601B488D
:1032300050F8265035B900BF5046FCF7E4FF00BFF8
:103240004320E0E7012D06D100BF5046FCF7DBFF2D
:1032500000BF4320D7E7287C00F0010030B900BF51
:103260005046FCF7D0FF00BF4520CCE70027D5F83B
:103270000C90D5F8088000BF5046FCF7C4FF00BF93
:1032800000E07F1C58F8041B0029FAD02760A9EB46
:10329000070060600020B6E760000020B0A60020B4
:1032A00070B504461046001F4FF00076051F2846F3
:1032B0002E606A4E051F28462E60694E051F28465F
:1032C0002E60684E051F28462E60674E051F284653
:1032D0002E60664E051F28462E60654E051F284647
:1032E0002E60644E051F28462E604FF08246051F53
:1032F00028462E60604E051F28462E605F4E051F33
:1033000028462E605E4E051F28462E604FF08146EF
:10331000051F28462E605B4E051F28462E6036028C
:10332000051F28462E604FF07E56051F28462E604A
:103330000026051F28462E604FF08076051F284680
:103340002E60051F28462C604F4E051F28462E6014
:103350004FF01236051F28462E604FF00336051F2A
:1033600028462E604FF00236051F28462E60761044
:10337000051F28462E60051F284629606FF012069B
:10338000051F28462E604FF01136051F28462E6077
:103390004FF01036051F28462E604FF00936051FE6
:1033A00028462E604FF00836051F28462E604FF045
:1033B0000736051F28462E604FF00636051F2846A3
:1033C0002E604FF00536051F28462E604FF004365C
:1033D000051F28462E602D4E051F28462E602C4EB8
:1033E000051F28462E602B4E051F28462E602A4EAC
:1033F000051F28462E60294E051F28462E60284EA0
:10340000051F28462E60274E051F28462E60264E93
:10341000051F28462E60254E051F28462E60244E87
:10342000051F28462E60234E051F28462E60224E7B
:10343000051F28462E60214E051F28462E60204E6F
:10344000051F28462E601F4E051F28462E604FF090
:103450008346051F28462E6070BD000000007041A5
:103460000000604100005041000040410000304138
:1034700000002041000010410000E0400000C0407A
:103480000000A040000040408D4200080000F841CC
:103490000000F0410000E8410000E0410000D84198
:1034A0000000D0410000C8410000C0410000B84108
:1034B0000000B0410000A8410000A0410000984178
:1034C00000009041000088412DE9F04105464FF091
:1034D00000083F2D02D14720BDE8F0813F2D03D3E6
:1034E000FF2D01D02A20F7E700BF4020FCF77DFE2A
:1034F000804600BFFF2D05D12448006890F83A505F
:10350000012608E02148006890F83A00A84201D15D
:10351000012600E000261E4850F8254034B900BFBF
:103520004046FCF770FE00BF4820D5E7012C06D1CD
:1035300000BF4046FCF767FE00BF4320CCE794F88D
:103540003C701448C05D94F83D1088431149C8553B
:103550000846C05D30B994F83E100F4800788843A3
:103560000D49087094F8380040F0080084F83800DD
:1035700000BF4046FCF747FE00BF204601F00EFFAB
:10358000012E01D100F05EFD0020A5E760000020C3
:10359000B0A60020520000205100002010B50849BC
:1035A00009680868FCF712FEFDF726FA054800686E
:1035B00001F002FF034909680868FCF710FE10BD1E
:1035C000600000206800002070B5054600261C48F9
:1035D000007800B170BD1B48007800B1FAE765B310
:1035E00000BF4020FCF701FE064600BF16480068F9
:1035F00090F83C401548005D1349096891F83D106A
:103600008843124908551048006801F0C7FE0F486A
:10361000005D40B90C48006890F83E100C480078F6
:1036200088430B49087008480068456300BF30466E
:10363000FCF7E9FD00BF00F005FD00BFCAE7000090
:103640004D0000204E0000206000002052000020AD
:10365000510000202DE9F04107460C4615461E4654
:103660001B48007810B15520BDE8F081194800785A
:1036700008B13220F8E727B91CB915B90EB95420A2
:10368000F2E73B2C01D95120EEE73B2D01D9522026
:10369000EAE7B6F57A7F01D35320E5E7701D642190
:1036A00048434FF47A71B0FBF1F14FF46160784315
:1036B000C4EB041200EB8200284400EBC00202EBD2
:1036C000001001EB80084046FFF77EFF0020CBE7AB
:1036D0004D0000204E00002070B5002500BF4020A6
:1036E000FCF783FD054600BF0448046800BF284678
:1036F000FCF789FD00BF204670BD0000800000205F
:1037000070B5002600F084F800BF4020FCF76DFD86
:10371000064600BF38480068401C37490860084624
:103720000168212001F08AFA00BF3046FCF76BFDEA
:1037300000BF3248007801285BD13148007820B1C1
:10374000012804D0022809D103E001250BE000255F
:1037500009E0012501202A49087004E00125002024
:103760002749087000BF00BF05B970BD254804682F
:103770003BE000BF4020FCF738FD064600BF606B11
:1037800068B3606B401E6063606B40BB94F83800A8
:1037900000F0370040B114F8380F00F0C800207076
:1037A00001206070383C02E0002084F8390094F871
:1037B000380000F0080090B93C34A078124909782C
:1037C00008431149087020781049085C6178084363
:1037D00014F83C190D4A5054204601F0D1FD64699B
:1037E00000BF3046FCF70FFD00BF94F83A003F28B9
:1037F000BFD100BFB9E70000800000205A000020C0
:10380000700000206C0000205100002052000020B9
:1038100010B5FDF7F2F807480088401C05490880FC
:10382000084600880A2803D30020088000F004F826
:1038300010BD00009C00002010B503480068FFF791
:103840001FFA0446204610BD90000020F8B54FF442
:103850002071284800F098FB3821274800F094FB9D
:10386000002514E0681C86B205EB8500214901EBB8
:10387000C00406EB860001EBC00764202070002026
:1038800084F82500E7601DA02062681C85B20F2D1A
:10389000E8D305EB8500174901EBC00464202070D4
:1038A000002084F82500E06014A020620020144964
:1038B0000860144908801020134908800D481349F6
:1038C00008600120FFF71CF9114908600020FFF78C
:1038D00017F9104908606A460FA10D480068FEF705
:1038E00043FD6A4611A10B480068FEF73DFD00F05C
:1038F00027F8F8BD70B00020F0B400203F000000B1
:103900008800002086000020840000209400002011
:103910008C0000209000002075432F4F532D494903
:1039200020546D724C6F636B0000000075432F4F85
:10393000532D494920546D725369676E616C0000C4
:1039400000B587B00320002180220A4BCDE9013267
:10395000CDE903104FF6FD703D23074A009007485C
:10396000FFF77AFA06AA06A13D20FFF7E1FB07B0B0
:1039700000BD0000F0B20020ECB40020053A0008C1
:1039800075432F4F532D494920546D72000000009C
:10399000F0B50B46032580F82550012B05D1174EB5
:1039A000C5693668354445610CE085692DB9134E0B
:1039B000C56936683544456104E0104E856936684E
:1039C0003544456107264569B5FBF6F706FB1754F4
:1039D0000B4D05EBC4010D682DB908600025C560CD
:1039E00001258D8006E00A680860C26010618D883C
:1039F0006D1C8D8000250561F0BD00008800002051
:103A0000F0B4002008B500BF00BF6A4600211B4883
:103A10000068FFF7A9F8FFF717F819480068401C7D
:103A200017490860084600680721B0FBF1F201FB66
:103A30001208144800EBC8073C681AE0E668104911
:103A400060690968884213D1204600F01DF894F897
:103A50002400022804D101212046FFF799FF02E04B
:103A6000022084F82500656815B12046A168A847A2
:103A70003446002CE2D1FFF70BF8C6E79000002097
:103A800088000020F0B40020F0B507264569B5FB9A
:103A9000F6F706FB17540D4D05EBC4021568854279
:103AA00005D1C168116039B100250D6104E00169DB
:103AB000C368CB6003B11961012580F8255000254A
:103AC000C560056195886D1E9580F0BDF0B400203D
:103AD00010B500BF4020FCF788FB044600BFFEF78E
:103AE000CFFC00BF2046FCF78EFB00BFFFF708FEAF
:103AF000FEF7DCFC10BD000010B5014640224B1E55
:103B00004FF0E0246361094B186820F07F4040EAE1
:103B10000260186023461B6943F0050323612346B6
:103B20001B6943F00203236110BD000020ED00E09B
:103B300030B504466420B4FBF0F52846FFF7DCFFFF
:103B400030BD70472DE9F05F05460F469046994617
:103B5000A87A1F490E5C05F10B00805D11F800B0DA
:103B60000BEBC60000F0FF0A1A4850F82A4000206C
:103B70002834E0602760207C20EA0800207484F864
:103B80001190207C283C00F0080080B994F83E0099
:103B9000114909780843104908701048805D94F86D
:103BA0003D1008430D498855204601F0E9FB2946A0
:103BB000204600F015F8206A30B12046216A00F056
:103BC00026F80020206265625046BDE8F09F0000A4
:103BD0001E710008B0A600205100002052000020F5
:103BE00010B590F83C2001F10B039B5C90F83D4030
:103BF000A34301F10B04A35423469B5C23B98B7AA6
:103C000090F83E40A3438B720023C36110BDF0B512
:103C1000024612F83C4F957856783C3A0B461868A5
:103C20000FE000F10B073F5DB74300F10B0C0CF800
:103C3000047067463F5D17B9877AAF4387721B1DD3
:103C400018680028EDD1F0BD70B504461D48006825
:103C5000C4611C48006890F83C1004F10B00405C03
:103C60001849096891F83D1008431649096891F808
:103C70003C2004F10B018854A07A1249096891F89C
:103C80003E100843A0720F48006890F83C500E4860
:103C9000405D0C49096891F83D1088430A49485530
:103CA0000848006801F07AFB0748405D40B90548C4
:103CB000006890F83E100548007888430349087072
:103CC00070BD000060000020520000205100002064
:103CD000014600228A72002005E0002301F10B0258
:103CE0001354421CD0B20828F7D370472DE9F04195
:103CF0005021114800F048F900250DE0681C86B2FB
:103D00000D4800EB051400EB0617002020706760DB
:103D10000AA0E060681C85B2042DEFD3064800EBD2
:103D2000051400202070606004A0E060024804498F
:103D30000860BDE8F081000060A200203F000000A4
:103D40003C00002030B501464A6808682AB9CC68B2
:103D5000606028B10025456002E0106000B142605B
:103D60008B680025DD6230BD70B5F021134800F08E
:103D70000BF9002411E0601C85B204EB44000F49EC
:103D800001EBC00305EB450001EBC00600201870F5
:103D90005E600BA05861601C84B2092CEBD304EB6D
:103DA0004400064901EBC00300201870586004A0CD
:103DB000586108460349086070BD000070A10020EA
:103DC0003F0000003800002000200B4908600B492C
:103DD00008700B4908700B4908700B4908700B49B3
:103DE00008600B4908600B4908600B4908600B49E3
:103DF00008700B4908707047800000204D000020BB
:103E00004E0000205B0000205A00002034000020FB
:103E10005C00002048000020440000204C000020EE
:103E20007C00002000210A4A1170002004E00021DB
:103E3000084A1154411CC8B20828F8D30021064A88
:103E40001170064A1170064A1160064A11607047E7
:103E500051000020520000204F00002050000020A0
:103E6000680000206000002070B54FF4FD61194823
:103E700000F08AF84FF48071174800F085F80024AC
:103E800013E0601CC5B2C4EBC40000EB0410114980
:103E900001EB8003C5EBC50000EB051001EB8006CC
:103EA0005E610EA05865601CC4B2152CE9D3C4EB4A
:103EB000C40000EB0410074901EB800300205861A7
:103EC00006A05865002006490860024805490860B8
:103ED00070BD0000B0A70020B0A600203F00000089
:103EE0006C0000206400002000B587B00320002192
:103EF00080220A4BCDE90132CDE903104FF6FF7065
:103F00003F23074A00900748FEF7A6FF06AA06A12E
:103F10003F20FFF70DF907B000BD0000B0A400205E
:103F2000ACA600205D42000875432F4F532D494930
:103F30002049646C6500000000B587B003200021B3
:103F400080220A4BCDE90132CDE903104FF6FE7015
:103F50003E23074A00900748FEF77EFF06AA06A107
:103F60003E20FFF7E5F807B000BD0000B0A200203A
:103F7000ACA40020A542000875432F4F532D49499A
:103F8000205374617400000004E0002200F8012B4B
:103F90004A1E91B20029F8D17047000070B578210F
:103FA0001148FFF7F1FF00240EE004EB44000E4936
:103FB00001EBC005601C00EB400001EBC000686035
:103FC0000AA06861601C84B2042CEED304EB4400A8
:103FD000054901EBC0050020686004A0686108463F
:103FE0000349086070BD000098AF00203F0000004A
:103FF000740000202DE9F04160211048FFF7C4FF54
:1040000000240DE0601C86B204EB44000B4901EB78
:10401000C00506EB460001EBC0072F60601C84B2B0
:10402000032CEFD304EB4400044901EBC00500204E
:104030002860084602490860BDE8F08110B0002001
:104040007800002010B5002400BF4020FCF7CDF818
:10405000044600BF14480078F8B914480078E0B965
:1040600000F030F812481349097850F8210012493D
:104070000860104800781149097888420DD00E4830
:104080000068006C401C0C49096808640C48006812
:10409000401C0B490860FCF7EBF800BF2046FCF71A
:1040A000B2F800BF10BD00004D0000204E000020FF
:1040B000B0A6002050000020680000204F00002023
:1040C000340000200649074A1278885C0649095CDA
:1040D000034A515C01EBC001044A117070470000B3
:1040E0001E710008510000205200002050000020E6
:1040F0002DE9F84F05460F4690469946DDE90AAB93
:104100000020009000BF4020FCF76FF8009000BF37
:104110004B480468002C7DD049496069086000BFA5
:104120000098FCF770F800BF203444F8207CA57696
:10413000002020766076606144F81CBC44F814AC22
:1041400044F8188C0C9824F8100C24F80E9C0020CD
:10415000E077E810207705F00700E076217F012066
:104160008840A077E17E012088406077002044F8F5
:10417000040C20606060E060A0602062A062606269
:10418000E06220632FA06063203C002606E000214F
:1041900004F1580040F82610701CC6B2002EF6D06C
:1041A0002046FEF7C9FD00BF4020FCF71EF8009036
:1041B00000BF254840F8254000BF0098FCF723F8D1
:1041C00000BF2046FEF7DCFE00BF4020FCF70DF8E4
:1041D000009000BF1D48006860610020A0611B487E
:1041E000006810B1194800688461184804603C34C4
:1041F000A0781749097808431549087020781549AF
:10420000085C6178084314F83C19124A505412486B
:10421000007800E00DE0401C0F490870204601F0D6
:10422000AFF800BF0098FBF7EEFF00BF0020BDE82D
:10423000F88F00BF0098FBF7E6FF00BF4220F6E7CB
:10424000640000203F000000B0A600206C000020A9
:1042500051000020520000205B000020002400BF1D
:1042600000BF4020FBF7C1FF044600BF06480068BE
:10427000401C0549086000BF2046FBF7C4FF00BF93
:10428000FEF752FFECE700005C00002010B5044888
:104290000068FEF7A3FFFF20FEF778FE10BD0000C8
:1042A00060000020002500BF02E01420FFF78CF919
:1042B000334800780028F8D0324800686421B0FB09
:1042C000F1F0304908600846006828B900202E49FE
:1042D0000870FF20FFF7F8F800BF4020FBF785FFCC
:1042E000054600BF27480068642148432749086005
:1042F00000BF2846FBF787FF00BF00BF0120FFF784
:1043000063F900BF4020FBF770FF054600BF0020A7
:104310001E49086000BF2846FBF775FF00BF0A2052
:10432000FFF752F900BF4020FBF75FFF054600BFD3
:10433000164800681649086000BF2846FBF763FF6F
:1043400000BF134800680F490968B0FBF1F040B2A4
:10435000C0F1640044B2002C02DB0B490C7009E090
:104360000020094908700A4800686421B0FBF1F098
:1043700004490860FEF738FF00F00CF8BEE70000C3
:104380004C00002044000020400000205C00002081
:10439000480000207CB5002514E069462846FEF759
:1043A00027FF064666B9094850F8254044B1012C5C
:1043B00006D0D4E9020100EB8100E0640198206599
:1043C000681CC5B23F2DE8D97CBD0000B0A6002016
:1043D00002F0010343B102F002032BB102E0491ED7
:1043E000002308C00029FAD1704780ED000B80ED52
:1043F000021B80ED042B80ED063B704729B1064A75
:1044000012680243044B1A6004E0034A12688243B4
:10441000014B1A607047000030380240F0B50021AF
:1044200000220024022500260223324F3F6807F0B5
:104430000C0121B1042905D0082937D105E02E4F00
:10444000076036E02D4F076033E02A4F3F1F3F687B
:10445000C7F38056274F3F1F3F6807F03F036EB1F9
:10446000264FB7FBF3F7DFF88CC0ACF1040CDCF897
:1044700000C0CCF3881C07FB0CF40CE01E4FB7FB0C
:10448000F3F7DFF870C0ACF1040CDCF800C0CCF33B
:10449000881C07FB0CF4174F3F1F3F68C7F3014709
:1044A0007F1C7D00B4FBF5F7076002E0124F076048
:1044B00000BF00BF0F4F3F6807F0F0010909104F20
:1044C0007A5C0768D74047600A4F3F6807F4E051BD
:1044D000890A0B4F7A5C4768D7408760054F3F6871
:1044E00007F46041490B064F7A5C4768D740C760C4
:1044F000F0BD0000083802400024F40040787D013F
:10450000240000202DE9F04706460F4690469946C4
:1045100000BFDFF8B4A09AF80000532801D001F0E2
:10452000B9FC00BFEFF311810846202181F3118807
:1045300000BF00BF244D002400BF04EB440205F17E
:10454000180101EBC201496801B903E0641C296943
:10455000A142F2DC00BF2969A1422ADD04EB44023A
:1045600005F1180141F8326004EB440201EBC2018D
:104570004F6004EB440205F1180101EBC201C1F8E0
:104580000880002204EB440305F1180101EBC3018C
:104590000A6104EB440305F1180101EBC301CA6091
:1045A00004EB440205F1180101EBC201C1F81490BB
:1045B00001E04FF0FF34C1B281F3118800BF00BFAA
:1045C0002046BDE8F08700008CB900202DE9F05F9F
:1045D00005460F469046994600BFDFF864B09BF849
:1045E0000000532801D001F055FC00BFDFF850A0B7
:1045F000032D1FD2EFF311810846202181F311888A
:1046000000BF00BF05EB45020AF1600101EBC204E7
:104610003DB12760C4F80480C4F8089000212161EE
:10462000E1600A996161C1B281F3118800BF00BFE6
:10463000002601E04FF0FF363046BDE8F09F000055
:104640008CB900202DE9F74F82B08346174600BF92
:104650002648009000980078532801D001F01AFCF9
:1046600000BF0BEB4B012148603000EBC106DDF8C9
:104670000C903569D6F80CA04FF00008554517D9B5
:10468000B068441BBC4201D2204600E038460446D4
:10469000706828440190224648460199FBF730FE95
:1046A000A044A1443F1B2544B068A84200D1002586
:1046B000AAEB0504BC4201D2204600E0384604467D
:1046C0005CB1706828440190224648460199FBF786
:1046D00017FEA044A1443F1B2544B8F1000F00D0B1
:1046E0003561404605B0BDE8F08F00008CB9002070
:1046F0002DE9F74F82B082461446DDF80CB00AEB84
:104700004A01224800EBC105D5F81090EE686868B0
:1047100030440190B14528D8A868801B471EA742A5
:104720000AD3224659460198FBF7EAFD3019E860A2
:10473000012005B0BDE8F08F4F44A74223D3A868FD
:10474000A0EB0608424659460198FBF7D9FDA4EBB9
:1047500008043CB1686801900BEB080122460198FF
:10476000FBF7CEFDEC600120E3E7A9EB0600471E56
:10477000A74208D3224659460198FBF7C1FD3019DC
:10478000E8600120D5E70020D3E70000A4B90020AD
:1047900070B500F01CFD044600F019FD0546054B00
:1047A000054A214600F068F84FF0005000F020FC68
:1047B00070BD0000C16C0008C478000870B5EFF34C
:1047C00011800646202080F3118800BF00BF2848D2
:1047D00001F002FC05462C462046264A516805E0B9
:1047E000CAB242F0800200F8012BC9097F29F7D82C
:1047F00000F8011B044620461E4A916805E0CAB233
:1048000042F0800200F8012BC9097F29F7D800F88F
:10481000011B04462046174A116905E0CAB242F05E
:10482000800200F8012BC9097F29F7D800F8011B85
:1048300004462046002105E0CAB242F0800200F89A
:10484000012BC9097F29F7D800F8011B044618225B
:104850002146284601F0C4FBF0B280F3118800BF66
:1048600000BF0448406A10B10249486A804770BDE1
:104870006CDA002044DA0020F8B504460D461646EE
:104880001F4600234FF480520F4910A0FFF73AFE55
:104890001049487008464078087600200090087E4D
:1048A00008230D4A09A1FFF791FE0020094908617C
:1048B0000A484068C86008460662446085604762EE
:1048C00000200870F8BD000044CA002053797356D8
:1048D0006965770044DA0020B0000020001000E095
:1048E0002DE9F04106460F46EFF311808046202067
:1048F00080F3118800BF00BF134801F06DFB05462F
:104900002C462046114A1269B11A05E0CAB242F09B
:10491000800200F8012BC9097F29F7D800F8011B94
:10492000044680223946204601F0ECFA044619225A
:104930002146284601F054FB08F0FF0080F311885F
:1049400000BF00BFBDE8F0816CDA002044DA00202F
:1049500070B5EFF311800446202080F3118800BF6A
:1049600000BF074801F038FB0546112229462846BA
:1049700001F036FBE0B280F3118800BF00BF70BDCC
:104980006CDA00202DE9F0410446EFF31180074670
:10499000202080F3118800BF00BF114801F01CFBEC
:1049A00005462E460F480069241A3046214605E088
:1049B000CAB242F0800200F8012BC9097F29F7D85A
:1049C00000F8011B064608223146284601F008FB84
:1049D000F8B280F3118800BF00BFBDE8F08100008D
:1049E0006CDA002044DA00202DE9F0410446EFF3B0
:1049F00011800746202080F3118800BF00BF1148B6
:104A000001F0EAFA05462E460F480069241A30469E
:104A1000214605E0CAB242F0800200F8012BC90924
:104A20007F29F7D800F8011B0646042231462846A4
:104A300001F0D6FAF8B280F3118800BF00BFBDE8DC
:104A4000F08100006CDA002044DA00202DE9F0410A
:104A50000446EFF311800746202080F3118800BF41
:104A600000BF114801F0B8FA05462E460F4800690C
:104A7000241A3046214605E0CAB242F0800200F80E
:104A8000012BC9097F29F7D800F8011B0646062229
:104A90003146284601F0A4FAF8B280F3118800BF2D
:104AA00000BFBDE8F08100006CDA002044DA00208D
:104AB0002DE9F04104460F46EFF311808046202097
:104AC00080F3118800BF00BF184801F085FA064640
:104AD000354617480069241A2846214605E0CAB21F
:104AE00042F0800200F8012BC9097F29F7D800F8AD
:104AF000011B05462846394605E0CAB242F080024D
:104B000000F8012BC9097F29F7D800F8011B0546D9
:104B100007222946304601F063FA08F0FF0080F3CF
:104B2000118800BF00BFBDE8F08100006CDA0020F2
:104B300044DA00202DE9F041EFF3118007462020F0
:104B400080F3118800BF00BF114801F045FA044608
:104B5000254610480088C0F308062846314605E07F
:104B6000CAB242F0800200F8012BC9097F29F7D8A8
:104B700000F8011B054602222946204601F030FAC2
:104B8000F8B280F3118800BF00BFBDE8F0810000DB
:104B90006CDA002004ED00E070B5EFF311800446FC
:104BA000202080F3118800BF00BF074801F014FAED
:104BB000054603222946284601F012FAE0B280F3A6
:104BC000118800BF00BF70BD6CDA002070B5EFF334
:104BD00011800446202080F3118800BF00BF0748E1
:104BE00001F0FAF9054612222946284601F0F8F9A3
:104BF000E0B280F3118800BF00BF70BD6CDA002006
:104C000070B50C48006A78B10A48006A006858B16B
:104C10000849096A0868804704460D462A46214625
:104C20000D2000F039F804E0034841680C2000F042
:104C300005F870BD44DA0020001000E02DE9F041D5
:104C400005460E46EFF311808046202080F3118840
:104C500000BF00BF0F4801F0BFF9044627463846A1
:104C6000314605E0CAB242F0800200F8012BC909C2
:104C70007F29F7D800F8011B07462A463946204607
:104C800001F0AEF908F0FF0080F3118800BF00BF0B
:104C9000BDE8F0816CDA00202DE9F04706460F46AA
:104CA0009046EFF311808146202080F3118800BFE9
:104CB00000BF174801F090F905462C4620463946BA
:104CC00005E0CAB242F0800200F8012BC9097F2931
:104CD000F7D800F8011B04462046414605E0CAB259
:104CE00042F0800200F8012BC9097F29F7D800F8AB
:104CF000011B044632462146284601F071F909F0AD
:104D0000FF0080F3118800BF00BFBDE8F0870000FE
:104D10006CDA002070B50446EFF3118005462020C0
:104D200080F3118800BF00BF074801F055F906461F
:104D300022463146304601F053F9E8B280F311883B
:104D400000BF00BF70BD00006CDA00202DE9F04705
:104D500006462948006800284CD0274804680027E8
:104D600003E0246904B902E07F1CB742F9D300BF15
:104D7000002C3AD0EFF311808146202080F3118877
:104D800000BF00BF1D4801F027F980464546284670
:104D9000314605E0CAB242F0800200F8012BC90991
:104DA0007F29F7D800F8011B05462846A16805E0D1
:104DB000CAB242F0800200F8012BC9097F29F7D856
:104DC00000F8011B054680222846216801F09AF868
:104DD000054616222946404601F002F909F0FF0077
:104DE00080F3118800BF00BF00BF1CB1E06808B1AC
:104DF000E0688047BDE8F087B80000206CDA00204A
:104E000010B50748006848B10548046800BFE0686D
:104E100008B1E06880472469002CF8D110BD00007B
:104E2000B800002070B5EFF311800646202080F313
:104E3000118800BF00BF0F4801F0CEF80446254698
:104E400028460D4A117805E0CAB242F0800200F807
:104E5000012BC9097F29F7D800F8011B05461B2241
:104E60002946204601F0BCF8F0B280F3118800BF5B
:104E700000BF70BD6CDA0020BC0000202DE9F041BD
:104E80000446EFF311800546202080F3118800BF0F
:104E900000BF0B4801F0A0F80746802221463846A3
:104EA00001F030F806460E223146384601F098F8F7
:104EB000E8B280F3118800BF00BFBDE8F0810000B8
:104EC0006CDA00202DE9F0410546EFF3118007462A
:104ED000202080F3118800BF00BF3B4801F07CF820
:104EE000064634462046394B2A681B69D11A05E02C
:104EF000CAB242F0800200F8012BC9097F29F7D815
:104F000000F8011B04462046A96805E0CAB242F039
:104F1000800200F8012BC9097F29F7D800F8011B8E
:104F2000044620222046696800F0ECFF044609226E
:104F30002146304601F054F834462046234B2A6877
:104F40001B69D11A05E0CAB242F0800200F8012BB9
:104F5000C9097F29F7D800F8011B04462046E968F3
:104F600005E0CAB242F0800200F8012BC9097F298E
:104F7000F7D800F8011B04462046296905E0CAB2AB
:104F800042F0800200F8012BC9097F29F7D800F808
:104F9000011B04462046002105E0CAB242F080020F
:104FA00000F8012BC9097F29F7D800F8011B044636
:104FB00015222146304601F013F8F8B280F311882B
:104FC00000BF00BFBDE8F0816CDA002044DA0020A9
:104FD00010B50648006A38B10448006A406818B144
:104FE0000249096A4868804710BD000044DA002081
:104FF000014908617047000044DA00200146024878
:105000000069081A7047000044DA002070B50120DA
:105010003A490870EFF311800446202080F311888C
:1050200000BF00BF48780A223549FFF761FBE0B2B4
:1050300080F3118800BF00BF0A20FFF76BFEEFF37B
:1050400011800646202080F3118800BF00BF2D4844
:1050500000F0C2FF05462C462046284A516805E06C
:10506000CAB242F0800200F8012BC9097F29F7D8A3
:1050700000F8011B04462046204A916805E0CAB2A8
:1050800042F0800200F8012BC9097F29F7D800F807
:10509000011B04462046194A116905E0CAB242F0D4
:1050A000800200F8012BC9097F29F7D800F8011BFD
:1050B00004462046002105E0CAB242F0800200F812
:1050C000012BC9097F29F7D800F8011B04461822D3
:1050D0002146284600F084FFF0B280F3118800BF1B
:1050E00000BF0648406A10B10449486A8047FFF78C
:1050F00087FDFFF76DFFFFF795FE70BD44DA0020D6
:10510000A77800086CDA002070B5EFF3118005462F
:10511000202080F3118800BF00BF0A4800F05CFF28
:1051200004460948007838B10B222146204600F099
:1051300057FF002004490870E8B280F3118800BFCF
:1051400000BF70BD6CDA002044DA00202DE9F04188
:105150000546EFF311800646202080F3118800BF3A
:1051600000BF194800F038FF07468022294638461C
:1051700000F0C8FE04462046012105E0CAB242F014
:10518000800200F8012BC9097F29F7D800F8011B1C
:1051900004462046002105E0CAB242F0800200F831
:1051A000012BC9097F29F7D800F8011B04461A22F0
:1051B0002146384600F014FFF0B280F3118800BF9A
:1051C00000BFBDE8F08100006CDA002070471FB519
:1051D0006846FFF723F9009804B010BD2DE9F843A5
:1051E00004460D4616461F46DDF820802048D0F8BC
:1051F000FC00A04239D01F480068202804D31E4874
:10520000FFF7A4FFBDE8F8831A48006800EB8000B0
:105210001A4941F820401748006800EB800001EB74
:10522000800045601348006800EB800001EB8000BF
:1052300006721048006800EB800001EB8000C76038
:105240000C48006800EB800001EB8000C0F8108083
:1052500008480068401C074908603B46324629461A
:105260002046CDF8008000F071F800BFCAE70000CA
:10527000B0A60020C0000020147A000850DB0020F7
:105280002DE9F04106460C46154629462046FFF713
:1052900027FB2046FFF7B2FE074639463046FFF7A8
:1052A000CDFC13480068802804D31248FFF74EFF56
:1052B000BDE8F0810E48006800EB40000E4941F85F
:1052C00020400B48006800EB400001EB8000456087
:1052D00000200749096801EB4101074A02EB8101FF
:1052E000886003480068401C0149086000BFDFE790
:1052F000C4000020C0790008D0DD002010B50024D3
:105300001AE004EB44000F4901EB8000806890B97B
:1053100004EB44020B4603EB8202516804EB4402A7
:1053200053F82200FFF7DCFA012004EB4401054AA0
:1053300002EB81018860641C034800688442E0D36A
:1053400010BD0000D0DD0020C40000202DE9F04198
:1053500086B004460D4616461F46DDF830801421FF
:1053600001A8FAF7E6FF0194029503960497CDF899
:10537000148001A8FFF7A6FD06B0BDE8F08100008B
:1053800010B504460448D0F8FC00A04202D02046E4
:10539000FFF75CFB10BD0000B0A6002010B504466E
:1053A0000448D0F8FC00A04203D004212046FFF7B7
:1053B0007FFB10BDB0A6002010B504460548D0F80C
:1053C000FC00A04203D02046FFF70EFB01E0FFF7F0
:1053D000BFFA10BDB0A6002070B505460E460024E9
:1053E00008E004EB4400114951F82000A84200D124
:1053F00004E0641C0E4800688442F2D300BF0C48ED
:105400000068844211D204EB4400084901EB80009B
:10541000466004EB44020B4603EB8202516804EB46
:10542000440253F82200FFF75BFA70BDD0DD002084
:10543000C40000202DE9F84305460F4690469946E2
:10544000089E2048D0F8FC00A84239D0002408E08B
:1054500004EB84001C4951F82000A84200D104E06C
:10546000641C1A4800688442F2D300BF17480068E1
:1054700084421ED204EB8400134901EB8000476094
:1054800004EB840001EB800080F8088004EB8400CA
:1054900001EB8000C0F80C9004EB840001EB80006D
:1054A00006614B464246394628460096FFF74EFFB6
:1054B00006E04B464246394628460096FFF78EFEE8
:1054C000BDE8F883B0A6002050DB0020C00000201B
:1054D00000BF0549098801F080010029F9D0C0F317
:1054E0000801014A918070470010014010B5FCF797
:1054F00019FC10BD0CB500200190009033480068E5
:1055000040F480303149086000BF3048006800F442
:10551000003000900198401C0190009818B9019843
:10552000B0F5A04FF1D12948006800F4003010B167
:105530000120009001E0002000900098012844D153
:1055400022484030006840F08050204940310860D7
:105550001F48006840F440401D4908601B4808305F
:1055600000681A4908310860084600680860084663
:10557000006840F4805008601648091F0860081F42
:10558000006840F08070091F086000BF0F48006885
:1055900000F000700028F9D040F202700E49086057
:1055A0000A480830006820F0030008490831086004
:1055B0000846006840F00200086000BF0348083059
:1055C000006800F00C000828F8D10CBD003802403B
:1055D0000070004019544107003C02402DE9F0439F
:1055E0002DED108B8BB005460C4616469846DDF81F
:1055F00088909FEDFE0AB0EE408A9FEDFC0AF0EE27
:10560000408A9FEDFA0AB0EE409A9FEDF80AF0EE5C
:10561000409A9FEDF60AB0EE40AA9FEDF40AF0EE34
:1056200040AAB7EE000A8DED0A0A0027C3E007EB97
:10563000470008EB800207CA07AB07C39DED070AC6
:10564000D5ED000A30EE600AD4ED000A20EE200A03
:105650008DED040A9DED080AD5ED010A30EE600AD1
:10566000D4ED010A20EE200A8DED050A9DED090A10
:10567000D5ED020A30EE600AD4ED020A20EE200ACF
:105680008DED060A9DED061ADDED050A9DED040A75
:1056900001F016FDB0EE40BA9DED0A0A3BEE400A5D
:1056A000F0EE000A20EE200AF0EE40BA9DED070A67
:1056B000D5ED000A30EE600A8DED010A9DED080A75
:1056C000D5ED010A30EE600A8DED020A9DED090A62
:1056D000D5ED020A30EE600A8DED030A94ED000A62
:1056E00020EE2B0AD4ED000A20EE200ADDED010A9F
:1056F00060EE200A80EE8B0A30EE080AB0EE408A97
:1057000094ED010A20EE2B0AD4ED010A20EE200AC6
:10571000DDED020A60EE200A80EE8B0A30EE280AE8
:10572000F0EE408A94ED020A20EE2B0AD4ED020A34
:1057300020EE200ADDED030A60EE200A80EE8B0ADF
:1057400030EE090AB0EE409A94ED000A20EE2B0AE2
:10575000DDED010A20EE200ADDED010A60EE200AEF
:1057600080EE8B0A30EE290AF0EE409A94ED010AA1
:1057700020EE2B0ADDED020A20EE200ADDED020A02
:1057800060EE200A80EE8B0A30EE0A0AB0EE40AAE4
:1057900094ED020A20EE2B0ADDED030A20EE200A2A
:1057A000DDED030A60EE200A80EE8B0A30EE2A0A55
:1057B000F0EE40AA7F1CB742FFF639AF3046FAF749
:1057C0004BFF41EC1D0B18EE100AFAF756FF41ECA7
:1057D0001E0B9FED870B53EC102BFAF75CFE41EC90
:1057E0001F0B53EC1D2BFAF7C8FECDE9080195ED10
:1057F000000A10EE101A0846FAF73FFF41EC1C0BA6
:105800009DED080B53EC102BFAF73FFE41EC1B0B00
:10581000FAF746FF28603046FAF71EFF41EC1C0BF2
:1058200018EE900AFAF729FF41EC1D0B9FED700B63
:1058300053EC102BFAF72FFE41EC1E0B53EC1C2BF4
:10584000FAF79BFE41EC1B0B95ED010A10EE101AC6
:105850000846FAF712FF41EC1F0B53EC1B2BFAF72B
:1058600014FECDE908019DED080B51EC100BFAF781
:1058700017FF68603046FAF7EFFE41EC1D0B19EE9A
:10588000100AFAF7FAFE41EC1C0B9FED590B53EC92
:10589000102BFAF700FE41EC1B0B53EC1D2BFAF713
:1058A0006CFE41EC1E0B95ED020A10EE101A084634
:1058B000FAF7E3FE41EC1F0B53EC1E2BFAF7E5FD64
:1058C000CDE908019DED080B51EC100BFAF7E8FE4D
:1058D000A8603046FAF7C0FECDE9080119EE900A3B
:1058E000FAF7CBFE41EC1F0B9FED410B53EC102B55
:1058F000FAF7D1FD41EC1D0B9DED080B53EC102B7D
:10590000FAF73BFE41EC1C0B94ED000A10EE101A66
:105910000846FAF7B2FE41EC1E0B53EC1C2BFAF7CB
:10592000B4FD41EC1B0BFAF7BBFE20603046FAF7E2
:1059300093FE41EC1C0B1AEE100AFAF79EFE9FED47
:105940002C0B53EC102BCDE908019DED080B51EC0D
:10595000100BFAF7A0FD41EC1E0B53EC1C2BFAF7D1
:105960000CFE41EC1B0B94ED010A10EE101A0846D8
:10597000FAF783FE41EC1D0B53EC1B2BFAF785FD68
:1059800041EC1F0BFAF78CFE60603046FAF764FEBC
:1059900041EC1B0B1AEE900AFAF76FFE41EC1D0B5F
:1059A0009FED130B53EC102BFAF775FD41EC1C0B1C
:1059B00053EC1B2BFAF7E1FD41EC1E0B94ED020AB0
:1059C00010EE101A0846FAF758FE53EC1E2BCDE9DC
:1059D00008019DED080B51EC100BFAF756FD41EC58
:1059E0001F0BFAF75DFEA0600BB005E000000000A1
:1059F000FCA9F1D24D62503FBDEC108BBDE8F083A5
:105A000010B51548006840F4700013490860134849
:105A1000006840F001001149086000200F4908317A
:105A200008600E4800680E4908400C4908600D489F
:105A3000091D0860081F006820F48020091F086005
:105A4000002006490C310860FFF754FD4FF000605C
:105A500001498039086010BD88ED00E0003802403F
:105A6000FFFFF6FE1030002410B5002400BF4020D8
:105A7000FAF7BBFB044600BFFCF702FD00BF20465F
:105A8000FAF7C1FB00BF0020444948620846406B5A
:105A900041F27071884203D841480068082803D158
:105AA00000203F49086075E03E483D49096800EB29
:105AB000810090ED000ADFED3C0A70EEC00A374825
:105AC000406B00EE100AB8EE400A30EEC00AB5EEA8
:105AD000C00AF1EE10FA11D032483149096800EBE2
