:020000040800F2
:10000000B0E80020A9010008E9210008B30D0008AC
:10001000891D0008910A00083D6A000800000000E0
:100020000000000000000000000000008D570008E4
:10003000950A0008000000007B020008A93D0008A6
:10004000C3010008C3010008C3010008C301000880
:10005000C3010008C3010008C3010008C301000870
:10006000C3010008C3010008C3010008C301000860
:10007000C3010008C3010008C3010008C301000850
:10008000C3010008C3010008C3010008000000000C
:10009000000000000000000000000000C301000894
:1000A000C3010008C3010008C30100087160000813
:1000B000C3010008C3010008C3010008C301000810
:1000C000C3010008C3010008C3010008C301000800
:1000D000C3010008D9690008C3010008000000003E
:1000E000C3010008C3010008C301000800000000AC
:1000F000000000000000000000000000C301000834
:1001000000000000C3010008C3010008C30100088B
:1001100000000000000000000000000000000000DF
:10012000C3010008C3010008C3010008C30100089F
:10013000C3010008000000000000000000000000F3
:10014000000000000000000000000000C3010008E3
:10015000C3010008C3010008C3010008C30100086F
:10016000C3010008C30100080000000000000000F7
:10017000000000000000000000000000000000007F
:1001800000000000C30100080000000000000000A3
:10019000C3010008DFF80CD000F0FEFB0048004768
:1001A000917B0008B0E800200648804706480047D9
:1001B000FEE7FEE7FEE7FEE7FEE7FEE7FEE7FEE717
:1001C000FEE7FEE70960000895010008EFF30981EA
:1001D00021B120ED108A42490A6810607047B0ECE6
:1001E000108A40490A681060704772B602B4EFF393
:1001F000118180F31188BFF34F8FBFF36F8F0846D3
:1002000002BC62B6704772B680F31188BFF34F8F9D
:10021000BFF36F8F62B6704772B633484FF0FF017D
:100220000170002080F309883048016881F3088854
:1002300003F020FB2E48012101702E482E490A7838
:100240000270274827490A680260106880F309880D
:10025000EFF3148040F0020080F31488BFF36F8F37
:10026000BDE8F04F0FBCBDE8005006BC62B60847C1
:1002700022484FF080510160704772B640F2A002F0
:10028000C2F20002116881F31188BFF34F8FBFF3F0
:100290006F8F62B6EFF3098020E9F04F104D2968A7
:1002A0000860744603F0E6FA124813490A780270AF
:1002B0000C490A682A6044F0040E1068B0E8F04F58
:1002C00080F3098840F20002C0F2000272B682F3A5
:1002D0001188BFF34F8FBFF36F8F62B67047000076
:1002E000600000206800002022ED00E0980000205F
:1002F0005A0000204F0000205000002004ED00E0D4
:1003000040EA01039B0703D009E008C9121F08C097
:10031000042AFAD203E011F8013B00F8013B521E17
:10032000F9D27047D2B201E000F8012B491EFBD28E
:1003300070470022F6E710B513460A4604461946F0
:10034000FFF7F0FF204610BD2DE9FE4F804681EA01
:100350000300C00F0C46009021F0004123F000453F
:10036000B8EB0200A94105D24046214690461C4602
:100370000B46024623F00040104347D0270DC7F339
:100380000A00C3F30A510290401A019040286BDA28
:10039000C3F3130040F4801B0098924620B1002361
:1003A000D2EB030A63EB0B0B01985946C0F14002F4
:1003B000504600F0DBF906460D4650465946019A74
:1003C00000F0F3F910EB08006141002487EA1152B4
:1003D00084EAE7731A4340D0009A62B3019A012A73
:1003E0004FEA075215DC001B61EB02014FF000429F
:1003F00002EA0752CDE90042001C41F58011324665
:100400002B4600F02AFA03B0BDE8F08F40462146A3
:10041000F9E7001B61EB0201001C41F58013001895
:100420005B412018A2F5001747EB030140EAD570A5
:10043000B6196D4111E06D084FEA360645EAC07500
:100440004FEA0752001B61EB0201001C41F58011CD
:1004500049084FEA30000019514132462B4603B09B
:10046000BDE8F04F00F0EAB90098012240000023F7
:10047000D0EB020263EBE073009821464FEAE07490
:10048000B8EB000061EB0401E9E783F000435BE7B0
:1004900081F0004158E72DE9FE4F81EA030404F0A2
:1004A000004421F0004100944FF0000B23F0004382
:1004B00050EA01045ED052EA03045BD0C3F30A544D
:1004C000C1F30A552C44A4F2F3340194A0FB025466
:1004D000C1F3130141F48011C3F3130343F48013F8
:1004E00001FB024400FB034E840A970A44EA81544C
:1004F00047EA8357A4FB076802958D0A05FB078529
:100500004FEA932C04FB0C542705029D4FEA065832
:1005100047EA1637B5EB08056EEB070C870E920E0F
:1005200047EA811742EA8312A7FB0201B6EB0B01EF
:1005300064EB00042B0D43EA0C335E1844EB1C50B3
:10054000DA465146E7FB0201C5F313044FEA0B33C9
:1005500043EA14534FEA0432019C43EA0603A4F130
:100560000C040294009CCDE900B400F076F903B0CD
:10057000BDE8F08F00200146F9E72DE9F04D81EA52
:10058000030404F0004B21F0004514464FF0000A2C
:1005900023F0004150EA050220D054EA01021DD0A8
:1005A000C5F30A570246C5F31303C1F31300C1F3A1
:1005B0000A5640F4801543F48013A7EB0608101B7D
:1005C000D64608F2FD3873EB050002D308F10108A6
:1005D00001E092185B41B8F1000F03DA00200146F8
:1005E000BDE8F08D00204FF48011064684460EE0F1
:1005F000171B73EB050705D3121B63EB05030643BB
:100600004CEA010C49084FEA300092185B4150EA6D
:100610000107EDD152EA030012D082EA040083EA16
:100620000501084305D0101BAB4106D2012200236F
:1006300006E000224FF0004302E06FF00102531089
:100640001AEB06004CEB085110EB0A0041EB0B01D2
:10065000BDE8F04D00F0F2B80EB5C10F80EAE070D1
:100660000844CA07002140F233438DE80E000A46D1
:100670000B4600F0F2F803B000BDC1F30A5210B50A
:10068000C1F3130140F2FF3341F480119A4201DAC1
:10069000002010BD40F233439A42A2F2334203DC01
:1006A000524200F072F810BD904010BD00F00042C0
:1006B00030F000400AD0C10D01F56071C0F31600A2
:1006C00042EA0151C2084007114370470020014629
:1006D0007047000030B5041E71F1000404DB4FF0D8
:1006E0000044404264EB0101141E73F1000405DB79
:1006F0001C464FF00043524263EB04038B4208BF99
:10070000824230BD30B5041E71F1000404DB4FF0AD
:100710000044404264EB0101141E73F1000405DB48
:100720001C464FF00043524263EB0403994208BF5A
:10073000904230BD01F0004330B421F0004150EA56
:10074000010206D00A0DA2F56072C1F31301002A5E
:1007500002DC30BC00207047440F44EAC104C100F1
:10076000E01830BC00EBC25000F031B8202A04DBA6
:10077000203A00FA02F1002070479140C2F12003B4
:1007800020FA03F3194390407047202A04DB203AF3
:1007900021FA02F00021704721FA02F3D040C2F1A1
:1007A00020029140084319467047202A06DBCB17E8
:1007B000203A41FA02F043EAE07306E041FA02F31C
:1007C000D040C2F1200291400843194670470029E9
:1007D000A8BF7047401C490008BF20F001007047C7
:1007E00010B4B0FA80FC00FA0CF050EA010404BF27
:1007F00010BC704749B1CCF1200421FA04F411FA7D
:100800000CF118BF012121430843A3EB0C01CB1DC0
:100810004FEA00614FEA102042BF002010BC704731
:1008200000EBC35010440029A4BF10BC7047401C0B
:10083000490008BF20F0010010BC704710B5141E1D
:1008400073F1000408DA401C41F1000192185B4189
:100850001A4301D120F0010010BD2DE9F04D924660
:100860009B4611B1B1FA81F202E0B0FA80F2203277
:100870009046FFF77BFF04460F4640EA0A0041EA34
:100880000B0153465A46084313D0114653EA010060
:1008900019D0C8F140025046FFF777FF05460E46D3
:1008A000504659464246FFF761FF084305D00120F4
:1008B00004E020463946BDE8F08D0020054346EAB5
:1008C000E0762C4337430A986305E40AA0EB08005E
:1008D0000022FD0A44EA47540A3002D500200146AE
:1008E000E9E7010510196941DDE908450019694189
:1008F000BDE8F04DA2E72DE9F04D00231A461B1A82
:100900008A4103DB00200146BDE8F08DC1F30A52A5
:10091000C1F3130141F480154FF0000BD10702D150
:1009200000186D41521E0027044640F2FF11384660
:1009300001EB620A3E468046024600204FF48011D9
:10094000FFF723FFC2197141BB1846EB0100B4EB5E
:10095000030C75EB000C04D3E41A65EB0005174695
:100960000E46241908F101006D4180463428E3DD6C
:10097000F91946EB0600091BA84103D24FF0FF32DC
:10098000134601E0002213461BEB070046EB0A5119
:10099000BDE8F04DFFF752BF064C074D06E0E0689A
:1009A00040F0010394E8070098471034AC42F6D3B6
:1009B000FFF7F4FB14860008348600082DE9F047A1
:1009C00005460E46174699460024AA222146641C75
:1009D0002A484254FF222146641C425403222146E5
:1009E000641C425407222146641C4254C5F307226A
:1009F0002146641C42542146641C4554C6F3072218
:100A00002146641C42542046611CCCB21B490E5442
:100A1000C7F307222046611CCCB218490A5420466D
:100A2000611CCCB215490F542046611CCCB213494D
:100A300001F800904FF00008C24600200AE00F497C
:100A4000095C414401F0FF080AEB080101F0FF0ACC
:100A5000411CC8B2A042F2DB2046611CCCB207495F
:100A600001F800802046611CCCB2044901F800A0C6
:100A70002146024807F0DCF8BDE8F08728B90020DD
:100A800070477047704770477047704770477047AE
:100A900000BFFEE77047000010B5029C90ED030A0E
:100AA000DFED130A30EE600ADFED120A20EE200AB5
:100AB00081ED000A90ED010ADFED0D0A30EE600ACB
:100AC000DFED0D0A20EE200A82ED000A90ED000A0B
:100AD000DFED070A30EE600ADFED080A20EE200A9B
:100AE00083ED000A90ED020A84ED000A10BD0000BB
:100AF0000080BB448FC2F53C0AD7233D0AD7A33CF4
:100B0000F0B50A4600210023002400BF3DE0012586
:100B100005FA01F3156805EA03049C4234D105681F
:100B20004F000326BE40B543056015794E00B54021
:100B30000668354305601579012D02D01579022D1F
:100B400016D185684F000326BE40B54385605579B0
:100B50004E00B540866835438560456801268E4065
:100B6000B5434560456896798E40B6B235434560D9
:100B7000C5684F000326BE40B543C560D5794E0019
:100B8000B540C6683543C560491C1029BFD3F0BDC8
:100B9000F0B5002300244D07ED0E02FA05F3CE1048
:100BA00000F1200555F826504E07F70E0F26BE40DF
:100BB000B543CF1000F1200646F82750CE1000F1C3
:100BC000200555F8265045EA0304CE1000F1200513
:100BD00045F82640F0BD0246002013690B400BB1DA
:100BE000012000E0002070470AB1816101E00B04A0
:100BF0008361704710B586B0044603A800F0A5FADB
:100C0000BDF90C0000EE100AB8EEC00ADFED350A9F
:100C100080EE201A84ED001ABDF90E0000EE100AD5
:100C2000B8EEC00ADFED2F0A80EE201A84ED011A1B
:100C3000BDF9100000EE100AB8EEC00ADFED290A77
:100C400080EE201A84ED021ABDF9120000EE100A9F
:100C5000B8EEC00ADFED240A80EE201A84ED031AF4
:100C6000BDF9140000EE100AB8EEC00ADFED1E0A4E
:100C700080EE201A84ED041ABDF9160000EE100A69
:100C8000B8EEC00ADFED180A80EE201A84ED051ACE
:100C900001A800F033F8BDF9040000EE100AB8EE28
:100CA000C00ADFED120A80EE201A84ED061ABDF9A3
:100CB000060000EE100AB8EEC00ADFED0C0A80EE66
:100CC000201A84ED071ABDF9080000EE100AB8EEEC
:100CD000C00ADFED060A80EE201A84ED081A06B07D
:100CE00010BD0000000080466F1283410040884420
:100CF00010B500F045FA00F010F810BD10B504462C
:100D0000032000F018F82080072000F014F8A080DD
:100D1000052000F010F8608010BD10B514210020EF
:100D200000F030F82021012000F02CF800210220F2
:100D300000F028F810BD70B5054601F095F93C208B
:100D400001F072F901F018F9284601F06DF901F08F
:100D500013F901F089F93D2001F066F901F00CF971
:100D600001F026F90446002001F048F901F020F9CD
:100D700040EA042004B2012001F040F901F08EF9AC
:100D8000204670BD70B505460C4601F06DF93C205B
:100D900001F04AF901F0F0F8284601F045F901F0B8
:100DA000EBF8204601F040F901F0E6F801F076F9A1
:100DB00070BD00BFFEE700003148006840F0010050
:100DC0002F4908602E481438006840F001002C4973
:100DD000143908602B48006820F440302949086025
:100DE0000846006840F4003008600846806840F417
:100DF000403088600846C06820F48030C8600846EB
:100E0000406A20F00F011F484162406A40F0010132
:100E10001C4841624FF6FF701B49C8625320088589
:100E20000846008820F0100008800846008B40F03B
:100E3000010008830846008B20F00C000883084658
:100E4000008B20F0F00008830846808940F0020003
:100E50008881A0210D4801700D48006840F00060B5
:100E60004FF0E021C1F800010748008C40F001007C
:100E7000054908840846008840F001000880704752
:100E80004438024000000240000001401BE400E042
:100E900000E100E02DE9F04F2DED0A8BB1B00546E1
:100EA0000E46174698469FED6B0AB0EE408A9FEDBE
:100EB000690AF0EE408A9FED670AB0EE409A9FED16
:100EC000650AF0EE409A9FED630AB0EE40AA9FEDEE
:100ED000610AF0EE40AA9FED5F0AB0EE40BA9FEDC6
:100EE0005D0AF0EE40BA9FED5B0AB0EE40CA002406
:100EF000A146A24616E004A8FFF77CFE9DED070A76
:100F000030EE0B0AB0EE40BA9DED080A30EE2B0A27
:100F1000F0EE40BA9DED090A30EE0C0AB0EE40CA80
:100F20000AF1010ABAF57A7FE5DB9FED4B0ACBEEB9
:100F3000000AC5ED000A9FED480ACBEE800AC5ED18
:100F4000010A9FED450ACCEE000AC5ED020A6DE0EC
:100F500028E004A8FFF74EFE9DED040A30EE080AD3
:100F6000B0EE408A9DED050A30EE280AF0EE408A88
:100F70009DED060A30EE090AB0EE409A9DED0A0A90
:100F800030EE290AF0EE409A9DED0B0A30EE0A0A87
:100F9000B0EE40AA9DED0C0A30EE2A0AF0EE40AA0F
:100FA00009F10109B9F10A0FD3DBB2EE040AC8EE68
:100FB000000A04EB44001FA901EB8000C0ED000A09
:100FC000B2EE040AC8EE800A04EB440001EB800094
:100FD000C0ED010AB2EE040AC9EE000A04EB4400B7
:100FE00001EB8000C0ED020AB2EE040AC9EE800AED
:100FF00004EB44010DA800EB8100C0ED000AB2EE45
:10100000040ACAEE000A04EB44010DA800EB8100BB
:10101000C0ED010AB2EE040ACAEE800A04EB4400F5
:101020000DA901EB8000C0ED020A641C062C8FDBC9
:101030004FF0060B449833465A460DA9CDE9008778
:1010400002901FA806F0BCFC31B0BDEC0A8BBDE8D5
:10105000F08F0000000000000000FA432DE9F84F77
:1010600004460D4616461F46DDE90EB9DDE90A8A3B
:101070002046FFF7BFFD94ED000AD5ED000A30EEE3
:10108000600AD7ED000A20EE200A84ED000A94EDF4
:10109000010AD5ED010A30EE600AD7ED010A20EE13
:1010A000200A84ED010A94ED020AD5ED020A30EE21
:1010B000600AD7ED020A20EE200A84ED020A94EDC0
:1010C000030AD9ED000A30EE600A84ED030A94EDBC
:1010D000040AD9ED010A30EE600A84ED040A94EDA9
:1010E000050AD9ED020A30EE600A84ED050A94ED96
:1010F000060AD6ED000A30EE600AD8ED000A20EEAE
:10110000200A84ED060A94ED070AD6ED010A30EEB6
:10111000600AD8ED010A20EE200A84ED070A94ED5A
:10112000080AD6ED020A30EE600AD8ED020A20EE77
:10113000200A84ED080ACDF800B021465046DDE9CA
:101140000C2300F07FF8BDE8F88F10B504463B2073
:1011500000F03AF820803D2000F036F860803F2013
:1011600000F032F8A080432000F02EF8E080452007
:1011700000F02AF82081472000F026F8608110BD99
:1011800010B500F0C3FE01216B2000F044F80021EF
:101190006C2000F040F80121192000F03CF80121FA
:1011A0001A2000F038F818211B2000F034F8002134
:1011B0001C2000F030F800216A2000F02CF80221F9
:1011C000372000F028F810BD70B5054600F04CFF40
:1011D000D02000F029FF00F0CFFE284600F024FFC9
:1011E00000F0CAFE00F040FFD12000F01DFF00F02B
:1011F000C3FE00F0DDFE0446002000F0FFFE00F01C
:10120000D7FE40EA042004B2012000F0F7FE00F00F
:1012100045FF204670BD70B505460C4600F024FF22
:10122000D02000F001FF00F0A7FE284600F0FCFEF1
:1012300000F0A2FE204600F0F7FE00F09DFE00F058
:101240002DFF70BD2DE9F0412DED108BAEB00546A0
:101250000C4616461F46DDF810819FEDFE0B06F08A
:10126000F7F98DED020B9FEDFD0B53EC102B9DED6F
:10127000020B51EC100BFFF70EF99FEDFA0B53EC3C
:10128000102BCDE904019DED040B51EC100BFFF781
:1012900002F9CDE906019DED060B51EC100BFFF7AD
:1012A00049FA2D9094ED030A10EE101A0846FFF744
:1012B000FDF99FEDEE0B53EC102BCDE902019DEDF6
:1012C000020B51EC100BFFF7E6F89FEDEA0B53EC25
:1012D000102BCDE904019DED040B51EC100BFFF731
:1012E0004CF9CDE906019DED060B51EC100BFFF713
:1012F00021FA2C9094ED040A10EE101A0846FFF71C
:10130000D5F99FEDDA0B53EC102BCDE902019DEDE1
:10131000020B51EC100BFFF7BEF89FEDD60B53EC10
:10132000102BCDE904019DED040B51EC100BFFF7E0
:1013300024F9CDE906019DED060B51EC100BFFF7EA
:10134000F9F92B9094ED050A10EE101A0846FFF7F4
:10135000ADF99FEDC60B53EC102BCDE902019DEDCD
:10136000020B51EC100BFFF796F89FEDC20B53ECFC
:10137000102BCDE904019DED040B51EC100BFFF790
:10138000FCF8CDE906019DED060B51EC100BFFF7C3
:10139000D1F92A9094ED000A8DED290A94ED010A05
:1013A000F0EE40FA94ED020A8DED280A94ED060A5B
:1013B000F0EE40DA94ED070AB0EE40BA94ED080A78
:1013C000F0EE40BA95ED000BB0EE401AF0EE601A68
:1013D00051EC100BFFF7AEF909EE900A95ED020BF8
:1013E000B0EE401AF0EE601A51EC100BFFF7A2F9C4
:1013F00009EE100A95ED040BB0EE401AF0EE601AFB
:1014000051EC100BFFF796F908EE100A95ED060B5C
:10141000B0EE401AF0EE601A51EC100BFFF78AF9AB
:1014200008EE900AF1EE490A9DED2C0A20EE800AA2
:10143000DDED2B0A08EE600ADDED2A0A08EEE00A6F
:10144000F6EE000A20EE200A8DED1E0A9DED2C0A14
:1014500029EE800ADDED2A0A08EE200ADDED2B0ACE
:1014600008EEE00AF6EE000A20EE200A8DED1D0AD5
:101470009DED2B0A29EE800ADDED2A0A09EE600AAD
:10148000DDED2C0A08EEA00AF6EE000A20EE200A96
:101490008DED1C0A9DED2A0A29EE800ADDED2B0A4E
:1014A00009EE200ADDED2C0A08EE600AF6EE000ACD
:1014B00020EE200A8DED1B0A9DED290AB5EEC00A2B
:1014C000F1EE10FA0BD1F5EEC0FAF1EE10FA06D1FA
:1014D0009DED280AB5EEC00AF1EE10FA7ED0DDEDE2
:1014E000290A60EEA00A4FEEAF0A9DED281A41EEE0
:1014F000010AB0EE600A06F02DFBB0EE40CA9DED89
:10150000290A20EE0C0A8DED290A2FEE8C0AF0EE46
:1015100040FA9DED280A20EE0C0A8DED280A6DEEAA
:10152000AD0A4BEE0B0A4BEEAB0AB0EE600A06F0CA
:1015300011FBB0EE40CA2DEE8C0AF0EE40DA2BEE35
:101540000C0AB0EE40BA2BEE8C0AF0EE40BAB0EEC8
:10155000000A29EE800A20EE2D0A8DED180AB0EE61
:10156000000A29EE800A20EE0B0A8DED170AB0EE74
:10157000000A29EE800A20EE2B0A8DED160AB0EE45
:10158000000A29EE000A20EE2D0A8DED150AB0EEB4
:10159000000A29EE800A8DED120AB0EE000A29EE4B
:1015A000000A8DED110AB0EE000A28EE000A8DED5A
:1015B000100AB0EE000A28EE800A8DED0F0AB0EE98
:1015C000000A29EE800A20EE080A8DED0E0AB0EE20
:1015D000000A28EE000A20EE280A00E0C7E28DED9E
:1015E0000D0A29EEA90A8DED0C0A69EE89EA29EEA9
:1015F00088FA29EEA80A8DED0B0A29EE09EA29EEF0
:10160000080A8DED0A0A29EE28DA68EE08CA28EEE3
:10161000280A8DED090A28EEA80A8DED080A9DED2D
:101620000C0A2DEE800ADDED170A00EEE80ADDED6A
:10163000160A00EE880A0DEE8E0ADDED110A60EE44
:101640008B0A00EE880ADDED110A60EEAB0A00EEAF
:10165000A80A13E0000000000000E83F000000605E
:10166000FB21094000000020C7719C3F182D445405
:10167000FB21094000000000008066400DEEEC0AEE
:10168000DDED080A0DEEE00A8DED1A0A9DED180A4F
:1016900020EE280ADDED0C0A0BEE200ADDED160A1D
:1016A00000EEC90ADDED150A00EE880A0BEE4E0ABF
:1016B0000BEE2C0ADDED100A60EEAB0A00EEA80A74
:1016C000DDED080A0BEE600A8DED190A9DED1A0A90
:1016D00060EE000A9DED190A40EE000A10EE901A25
:1016E0000846FEF7E3FFCDE904019DED040B05F08C
:1016F000AFFF8DED060B9DED060B51EC100BFFF7C8
:1017000019F80AEE100A9DED180AB1EE400A60EED3
:10171000080A9DED170A40EE090A9DED0C0A4BEEF2
:10172000800A9DED150A40EE280AB0EE600A0BEE25
:10173000CE0ADDED100A60EE8B0A00EEA80AF0EE8C
:10174000400A4BEEEC0A9DED080AF0EE60AA4BEE63
:1017500080AAB0EE000A6AEE000ACDED140AB0EEDF
:10176000000A2AEE800A8DED130A9DED0E0AF0EEB6
:10177000000A10EE8D0ADDED290A70EE600A9DED7B
:10178000100AB1EE400A20EE801A9DED0D0AF0EE2F
:10179000000A00EEAE0A70EE6F1ADDED110AB0EE2F
:1017A000410A00EEA10AF6EE000A30EEEC1ADDED79
:1017B000080A71EE600A60EE8A0A3DEE4F1A4AEEA0
:1017C000810A70EEED0A2AEE881A01EE600AF1EE47
:1017D0004A0A60EEA81A4AEE891ADDED0A0A9DED62
:1017E0000B1A70EEC10A20EE8A1ADDED090A7EEEB0
:1017F000A00A0AEEA01A71EE4B0A01EEA00A7FEED3
:101800000D0A60EE8A0AB6EE001A31EE4E1A31EE7B
:101810006C1A4AEE810A70EEEB0A2AEE081A01EE03
:10182000200A8DED220A9DED0E0AF0EE000A10EE60
:101830008D0ADDED290A70EE600A9DED0F0A20EE9B
:10184000801A9DED0D0AF0EE000A00EEAE0A70EE71
:101850006F1ADDED120AB0EE410A00EEA10AF7EEB2
:10186000000AB0EE001A41EE4E0AB0EE001A41EE48
:101870006C0A9DED281A70EEC10AB1EE001A29EE2D
:10188000011A01EE600AF6EE000A30EEEC1ADDED08
:10189000080A71EE600A60EE8A0A3DEE4F1A4AEEBF
:1018A000810A70EEED0A2AEEA81A01EE200A6AEE0D
:1018B000081A4AEEA91ADDED0A0A9DED0B1A70EE20
:1018C000C10A20EE8A1ADDED090A7EEEA00A0AEEB0
:1018D000A01A71EE4B0A01EEA00A2AEE281ADDEDDD
:1018E000130A00EEC91A7FEE0D0A60EE8A0AF6EEC0
:1018F000001A71EECE1A71EEEC1A4AEEA10A70EEE1
:10190000EB0A01EE200A8DED210A9DED0E0AF0EEA4
:10191000000A10EE8D0ADDED290A70EE600A9DEDD9
:10192000120AB1EE400A20EE801A9DED0D0AF0EE8B
:10193000000A00EEAE0A70EE6F1ADDED0F0AB0EE8F
:10194000410A00EEA10AF7EE000AB0EE001A41EEDD
:101950004E0AB0EE001A41EE6C0A9DED281A70EEA8
:10196000C10AB1EE001A28EE011A01EE600ADDED9F
:10197000140AF1EE600A20EE881A0AEEE91AF6EE71
:10198000000A70EEEC1ADDED080A71EEE00A60EE76
:101990008A0A7DEE4F1A4AEEA10A70EEED0A01EEB8
:1019A000200A6AEE091A4AEEA81ADDED0A0A9DED30
:1019B0000B1A70EEC10A20EE8A1ADDED090A7EEEDE
:1019C000A00A0AEEA01A71EE4B0A01EEA00A2AEE56
:1019D000291ADDED130A00EEC81A7FEE0D0A60EE3B
:1019E0008A0AF6EE001A71EECE1A71EEEC1A4AEE81
:1019F000A10A70EEEB0A01EE200A8DED200A9DEDA2
:101A00000E0AF0EE000A10EE8D0ADDED290A70EEE6
:101A1000600A9DED110A60EE800A9DED0D0AB0EEA0
:101A2000001A01EE2E0A70EE6F1A9DED101AB0EE3C
:101A3000600A01EE210ADDED140AF1EE600A60EEA3
:101A4000A80A4AEE890AB6EE001A71EE6C1A9DEDEC
:101A5000081A31EEC11A21EE0A1A7DEE4F1A0AEE6B
:101A6000A11A31EE6D1A00EE810AF1EE4A0A60EE1B
:101A7000A90A4AEE880A9DED0A1ADDED0B1A31EE2D
:101A8000611A21EE0A1ADDED091A7EEEA11A0AEE9C
:101A9000A11A31EE4B1A00EE810A7FEE0D0A60EEBC
:101AA0008A0AB6EE001A31EE4E1A31EE6C1A4AEE80
:101AB000810A70EEEB0A2AEE091A01EE200A8DED7A
:101AC0001F0ADDED220A60EEA00A9DED211A41EE0B
:101AD000010A9DED201A41EE010A9DED1F1A41EE0B
:101AE000010AB0EE600A06F035F8B0EE40CA9DED8E
:101AF000220A20EE0C0A8DED220A9DED210A20EE2D
:101B00000C0A8DED210A9DED200A20EE0C0A8DEDC8
:101B1000200A9DED1F0A20EE0C0A8DED1F0A9DED97
:101B20001E0ADDED2D0A9DED221A00EEC10A8DED93
:101B30001E0A9DED1D0ADDED2D0A9DED211A00EE18
:101B4000C10A8DED1D0A9DED1C0ADDED2D0A9DEDEE
:101B5000201A00EEC10A8DED1C0A9DED1B0ADDED79
:101B60002D0A9DED1F1A00EEC10A8DED1B0A9DED99
:101B70001E0A9FED821AF0EE690A40EE010AF0EEAD
:101B8000609A9DED1D0A9FED7D1AF0EE490A40EE28
:101B9000010AB0EE609A9DED1C0A9FED781AF0EEF6
:101BA000480A40EE010AB0EE608A9DED1B0A9FEDE7
:101BB000731AF0EE680A40EE010AF0EE608A69EEF0
:101BC000A90A49EE090A48EE080A48EEA80AB0EE4A
:101BD000600A05F0BFFFB0EE40CA29EE8C0AF0EEB5
:101BE000409A29EE0C0AB0EE409A28EE0C0AB0EEAC
:101BF000408A28EE8C0AF0EE408A19EE900AFEF731
:101C000055FDC5E9000119EE100AFEF74FFDC5E9C3
:101C1000020118EE100AFEF749FDC5E9040118EEAD
:101C2000900AFEF743FDC5E9060129EE280A09EEF0
:101C3000C80AF0EE000A20EE200A8DED270A29EEF0
:101C4000890A08EE280AF0EE000A20EE200A8DED3F
:101C5000260A29EEA90A09EE490A08EE480A08EE02
:101C6000A80A8DED250A29EE080A09EEA80AF0EE69
:101C7000000A20EE200A8DED240A29EEA90A09EEB9
:101C8000090A08EE480A08EEE80A8DED230A2798AB
:101C9000FEF70CFDCDE900019DED000B05F0C4F849
:101CA0008DED020B9DED020B51EC100B81F000410C
:101CB0009FED330B53EC102BCDE904019DED040B8C
:101CC00051EC100BFEF7E7FBCDE906019DED060B8D
:101CD00051EC100BFEF72EFD30602598FEF7E6FC68
:101CE000CDE902012698FEF7E1FCCDE900019DED6A
:101CF000021B9DED000B05F0B3FB8DED040B9FED7A
:101D0000200B53EC102B9DED040B51EC100BFEF748
:101D1000C2FBCDE906019DED060B51EC100BFEF761
:101D200009FD38602398FEF7C1FCCDE90201249833
:101D3000FEF7BCFCCDE900019DED021B9DED000B03
:101D400005F08EFB8DED040B9FED0D0B53EC102B6E
:101D50009DED040B51EC100BFEF79DFBCDE9060148
:101D60009DED060B51EC100BFEF7E4FCC8F80000EB
:101D70002EB0BDEC108BBDE8F08100000AD7A33B6C
:101D800000000060E3A54C4000BFFEE70FB42DED5E
:101D9000080BF0B52DED108B81B0F0EE40AAB0EE3F
:101DA00060BAF0EE41BAB0EE61CAF0EE42CAB0EEEF
:101DB00062DAB0EE438A27ACF0CC9DED210AF0EE5A
:101DC00040DA9DED220AB0EE40EA9DED230A8DED4A
:101DD000000AF0EE6BEAB0EE4BFAF0EE6AFA7CEE37
:101DE000EF0AB0EE600AF0EE4E0A3149314802F0D7
:101DF00069FCF0EE409A7CEE4F0AB0EE600AF0EE1D
:101E00006D0A2D492D4802F05DFCB0EE409A7DEE42
:101E10006E0AB0EE600ADDED000A2949294802F099
:101E200051FCF0EE408AB0EE48AAB1EE490A30EE1D
:101E3000290A30EE280A30EE0A0AB1EE400ADFED38
:101E4000220A20EE200A84ED000A39EE290A30EE3B
:101E5000680A30EE0A0AB1EE400ADFED1B0A20EEF6
:101E6000200A85ED000AB1EE490A30EE690A30EE2B
:101E7000280A30EE0A0AB1EE400ADFED130A20EE1E
:101E8000200A86ED000A39EE690A30EE680A30EE63
:101E90000A0AB1EE400ADFED0C0A20EE200A87EDB7
:101EA000000A01B0BDEC108BF0BC5DF834FB000003
:101EB0008CB90020ECB90020ACB900200CBA00208D
:101EC0004CBA00202CBA0020384A5E3D10B502F012
:101ED000EBFC10BDBCEEE02A12EE100A0A490860C5
:101EE000BCEEE12A12EE100A091D0860BCEEC12A00
:101EF00012EE100A091D0860BCEEC02A12EE100A8C
:101F0000091D08607047000034040040184800684C
:101F100040F00200164908601648006820F470205E
:101F2000144908600846006840F4A0200860081DB5
:101F3000006840F44070091D0860081D006840F406
:101F40002020091D0860081D006820F47020091D6C
:101F5000086008481430006840F480700549143166
:101F600008600846006840F4007008607047000090
:101F7000303802400004024010B5012251020B48E3
:101F8000FEF732FE012211020848FEF72DFE4FF443
:101F900000710648FEF71FFE044600224FF48071D0
:101FA0000248FEF721FE204610BD0000000402405A
:101FB00070B50025012251020F48FEF715FE0024DE
:101FC00016E0012211020C48FEF70EFE4FF40071DC
:101FD0000948FEF700FE012802D180202041054378
:101FE00000224FF480710448FEF7FEFD601CC4B26D
:101FF000082CE6DB284670BD0004024010B50446FC
:1020000022464FF400710748FEF7EEFD012211024F
:102010000448FEF7E9FD00224FF480710148FEF705
:10202000E3FD10BD0004024070B50546002415E034
:102030008020204100EA05024FF400710948FEF7B4
:10204000D3FD012211020748FEF7CEFD00224FF416
:1020500080710448FEF7C8FD601CC4B2082CE7DBA1
:1020600070BD00000004024010B5012251020A4870
:10207000FEF7BAFD012211020748FEF7B5FD002266
:102080004FF400710448FEF7AFFD00224FF4807159
:102090000148FEF7A9FD10BD0004024010B5002262
:1020A0004FF400710648FEF79FFD0122110204481B
:1020B000FEF79AFD012251020148FEF795FD10BD81
:1020C00000040240404A126842F010023E4B1A607F
:1020D0003D4A143A126842F002023B4B143B1A602C
:1020E0003A4A126822F47042384B1A601A46126853
:1020F00042F420421A60354A0832126822F44052F3
:10210000324B08331A601A46126842F400521A60C1
:102110001A1D126842F480521B1D1A602B4A20328D
:10212000126842F0E062294B20331A601A461268A6
:1021300042F0E0421A60264A928922F40042244B7F
:102140009A811A46928922F480529A811A4692897B
:1021500042F00C029A811A46128A22F440521A82E4
:10216000DFED1C0AB0EE600AFCEEC00A10EE900A29
:1021700000EE900AF8EE600A70EE600AB3EE001A04
:1021800060EE810AFCEEE00A10EE901A41EA0012BD
:102190001A81114A126842F020024FF0E023C3F87E
:1021A00004210B4A928942F02002094B9A810B4A82
:1021B0000B4B1A60F0230B4A1370054A928942F4C4
:1021C0000052034B9A817047443802400004024099
:1021D000001001400000364304E100E00005FA056C
:1021E0000CED00E025E400E0704770B500240EE03F
:1021F0000021204600F0E9F8002504E0002000F06E
:1022000061F9681CC5B2802DF8DB601CC4B2082CD3
:10221000EEDB70BD1CB50121084602F0CFFB0120AA
:102220008DF804008DF8060003208DF805002020AD
:10223000009069460948FEF763FC4020009069461B
:102240000648FEF75DFC012220210448FEF7CCFC85
:10225000012240210148FEF7C7FC1CBD00000240DE
:1022600070B50546002413E08020204100EA0502F5
:1022700040210E48FEF7B8FC012220210B48FEF752
:10228000B3FC002220210948FEF7AEFC601CC4B25A
:10229000082CE9DB012220210448FEF7A5FC0022DE
:1022A00020210248FEF7A0FC70BD000000000240A3
:1022B00010B5012240210948FEF796FC0122202199
:1022C0000648FEF791FC002240210448FEF78CFCF2
:1022D000002220210148FEF787FC10BD00000240CB
:1022E00010B5002240210748FEF77EFC0122202184
:1022F0000448FEF779FC012240210248FEF774FCF5
:1023000010BD00000000024070B5002406E000256A
:1023100000E06D1CB5F57A7FFBD3641CB4F57A7FC1
:10232000F5D3FFF777FFAE2000F0BCF8D52000F022
:10233000B9F8802000F0B6F8A82000F0B3F83F20EC
:1023400000F0B0F8D32000F0ADF8002000F0AAF8BB
:10235000402000F0A7F8A12000F0A4F8C82000F069
:10236000A1F8DA2000F09EF8122000F09BF88120FE
:1023700000F098F8CF2000F095F8D92000F092F8FE
:10238000F12000F08FF8DB2000F08CF8302000F016
:1023900089F8A42000F086F8A62000F083F88D20AC
:1023A00000F080F8142000F07DF8AF2000F07AF8FB
:1023B000FFF71BFF70BD10B50246012000E050433F
:1023C0000B1EA1F10101FAD110BD70B505460C46F6
:1023D00045F0B00000F066F8102141EA141000F05A
:1023E00061F804F00F0000F05DF870BD2DE9F041D8
:1023F00005460E461746721ED206110E6A1E52067A
:10240000100EFFF7E2FF002409E0A7F12001134AB4
:1024100002EB0111085D00F055F8601CC4B2082CF5
:10242000F3DB721ED206110E6A1E012303EB420279
:10243000D0B2FFF7CAFF00240BE0A7F12001074A42
:1024400002EB011204F10801505C00F03BF8601C43
:10245000C4B2082CF1DBBDE8F0810000467E000824
:102460002DE9F04780460E4617461D46002415E02C
:10247000281B411E0A20FFF79EFFB7FBF0F00A2140
:10248000B0FBF1F201FB120000F130093019C1B2CA
:102490004A464046FFF7AAFF601CC4B2AC42E7DBE5
:1024A000BDE8F08710B50446FFF702FF7820FFF77C
:1024B000D7FE0020FFF7D4FE2046FFF7D1FEFFF73E
:1024C0000FFF10BD10B50446FFF7F2FE7820FFF7AE
:1024D000C7FE4020FFF7C4FE2046FFF7C1FEFFF70E
:1024E000FFFE10BD1D481E481E481F481F482048BB
:1024F000204821482148224822482348234824488C
:10250000244825482548264826482748274828485B
:102510002848294829482A482A482B482B482C482B
:102520002C482D482D482E482E482F482F483048FB
:1025300030483148314832483248334833483448CB
:10254000344835483548364836483748374838489B
:1025500038483948394800BF70470000D07D00082E
:10256000D47D0008DA7D0008DC7D0008D87D0008F5
:10257000DE7D0008E07D0008E27D0008E47D0008C3
:10258000E67D0008E87D0008EA7D0008EC7D000893
:10259000EE7D0008F07D0008F27D0008F47D000863
:1025A000F67D0008F87D0008FA7D0008FC7D000833
:1025B000FE7D0008007E0008027E0008047E000800
:1025C000067E0008087E00080A7E00080C7E0008CF
:1025D0000E7E0008107E0008127E0008147E00089F
:1025E000167E0008187E00081A7E00081C7E00086F
:1025F0001E7E0008207E0008227E0008267E00083D
:10260000287E00082A7E00082C7E000870B000207A
:10261000F0B40020327E0008347E0008367E0008C8
:10262000387E00083A7E00083C7E00083E7E0008A6
:10263000407E0008427E00082E7E0008447E00088E
:102640002DE9F04105460E46144600271DB9042029
:102650002070BDE8F08116B90C202070F9E717480A
:10266000007810B112202070F3E72878012808D0F4
:10267000022807D0032802D0042804D100E000BFBC
:1026800000BF00BF02E001202070E2E700BF00BFF2
:102690004020FDF7AAFD074600BF6E6100BF384627
:1026A000FDF7B1FD00BF25B11EB13146284603F04C
:1026B00073F90020207000BFCBE700004D00002020
:1026C00010B500F019F801F0EBFC01F017FD01F076
:1026D00037FD01F0B5FC01F075FC01F0CBFD01F018
:1026E000F5FD01F06DFD01F093FD01F01BFA00F026
:1026F00031F8FFF7F7FE10BD10B510484FF48072A7
:1027000002E0521E002308C0002AFAD10C4B0D4CE7
:10271000236023461B6823F0070323600A4B1968D4
:1027200001F04043B3F1404F01D000BFFEE700236A
:10273000064C23804023064C236010BD28B50020A2
:1027400028B900209800002034EF00E09C00002011
:10275000A00000207047000010B50848007801284C
:102760000AD107480078FF2804D205480078401CA9
:102770000349087002F0BEFC10BD00005A000020A2
:102780004D00002010B5002422480078012840D1D7
:1027900000BF4020FDF729FD044600BF1E48007819
:1027A00020B11D480078401E1B4908701A48007867
:1027B00040BB1A48007810BB01F0F0FD18481949D9
:1027C000097850F821001849086016480078174920
:1027D0000978884210D014480068006C401C1249E7
:1027E0000968086412480068401C1149086002F03A
:1027F000CDFCFDF73DFD07E002F0AEFC04E002F089
:10280000ABFC01E002F0A8FC00BF2046FDF7FBFC9A
:1028100000BF10BD5A0000204D0000204E000020D7
:10282000B0A6002050000020680000204F000020CB
:10283000340000202DE9F04104460E460027FF2C0D
:1028400006D03F2C04D32A2030700020BDE8F08150
:102850002848007818B1102030700020F6E700BF3B
:102860004020FDF7C2FC074600BFFF2C10D02248D5
:1028700050F8240040B100BF3846FDF7C4FC00BF4B
:10288000282030700020E1E701201B4941F8240096
:102890001A48056875B9FF2C03D00020164941F885
:1028A000240000BF3846FDF7AEFC00BF04203070A6
:1028B0002846CBE71148006840681049086000BF0F
:1028C0003846FDF7A0FC00BF04202870FF2040EA36
:1028D000042028810020686009A06861284601F072
:1028E00063FB294628206A6902F0AAFF00203070A5
:1028F0002846ABE74D000020B0A60020380000209D
:102900003F0000002DE9FE4F05468B46174600208C
:1029100001901DB904203870BDE8FE8F2878042886
:1029200002D001203870F7E79248007810B10220F9
:102930003870F1E79048007810B10D203870EBE75F
:1029400000BF4020FDF751FC019000BF28894FEAED
:102950002028287AFF2826D1288900F47F40288162
:1029600028898649096891F83A10084328818348E4
:1029700000686860B8F1FF0F0DD08048006890F8DB
:102980003A00404507DC00BF0198FDF73CFC00BF62
:102990007820387006E000BF0198FDF734FC00BFD6
:1029A00000203870B8E7B8F1FF0F77D0287A02908E
:1029B0006C6894F83A00404570DD7048006890F803
:1029C0003A10029881427FDA94F83C906C4810F8F3
:1029D000090094F83D100840B0B1694810F80900AA
:1029E00094F83D108843664901F80900084610F83C
:1029F000090030B994F83E10624800788843614974
:102A000008704FF0010A19E0E669AEB194F83C9005
:102A100006F10B0010F8090094F83D10884306F108
:102A20000B0101F80900084610F8090020B9B07A36
:102A300094F83E108843B0724FF0000A84F83A8050
:102A4000204602F0BBFD4246014600902C2002F0D9
:102A500003FC14F83A0FC010A070207800F00700B3
:102A60006070A17801208840207161780120884041
:102A7000E0703A3CBAF1010F11D13C34A0784149E1
:102A8000097808433F49087020783D49085C61781F
:102A9000084314F83C193A4A505412E014E0E6692D
:102AA0007EB1B07A3C34A1780843B072217806F147
:102AB0000B00405C6178084314F83C2906F10B01D7
:102AC0008854314840F828402C48006890F8380075
:102AD00040F010002949096881F838000020274992
:102AE000096881F8390025480068C0F834B02846E4
:102AF00001F016FA00BF0198FDF785FB00BF01F059
:102B00000DFC00BF4020FDF770FB019000BF1B488B
:102B1000006890F8390020B1012809D0022806D1B8
:102B200002E0002038700BE00E20387008E000BF93
:102B300029461248006801F0BFF90A20387000BF2A
:102B400000BF00200D49096881F838000B49096869
:102B500081F8390009490968C861084909680862AB
:102B600006490968486200BF0198FDF74CFB00BFA9
:102B700000BFD1E64D0000204E0000206000002084
:102B80005200002051000020B0A600202DE9F041A5
:102B9000044600273A48007810B10520BDE8F081CE
:102BA0000CB90420FAE72078042801D00120F5E7C9
:102BB00000BF4020FDF719FB074600BF2089051222
:102BC000267A304960680968884206D000BF3846D6
:102BD000FDF719FB00BF6420E0E7FF2D18D029485E
:102BE000006890F83A00A8420ED12648006802F02A
:102BF000E5FC8046324641462D2002F02DFB314651
:102C00002048006800F042F801201F4941F82500E3
:102C1000A07A38B3002310221946204601F0FEF8AE
:102C20000646208900F47F4020812089304320819E
:102C3000154850F826006060FF2D0AD0AE4208DC2F
:102C400000BF3846FDF7DFFA00BF01F067FB7820D0
:102C5000A4E700BF3846FDF7D6FA00BF01F05EFBDF
:102C600000209BE7208940F0FF0020810020606069
:102C700000BF3846FDF7C7FA00BF00208EE700000E
:102C80004D00002060000020B0A6002070B5044672
:102C90000D4694F83C601E48805D94F83D108843D2
:102CA0001B498855204602F059FE1948805D30B90D
:102CB00094F83E101748007888431649087004F8C5
:102CC0003A5F15480570C5F3C200A07005F0070013
:102CD0006070A178012088402071617801208840CF
:102CE000E07020790B49097808430A490870A078F8
:102CF0000749085CE1780843A1783A3C044A5054FB
:102D0000064840F82540204602F01AFE70BD00003B
:102D100052000020510000204F000020B0A60020EB
:102D200010B500240D480078012816D100BF4020BE
:102D3000FDF75BFA044600BF0948007840B909482E
:102D40000078FF2804D207480078401C0549087025
:102D500000BF2046FDF757FA00BF10BD5A00002003
:102D60004D0000204E00002010B5002417480078C8
:102D700001282AD100BF4020FDF737FA044600BFE2
:102D800013480078E0B913480078A0B111480078E2
:102D9000401E104908700846007838B900BF204628
:102DA000FDF731FA00BF01F0B9FA0EE000BF20468E
:102DB000FDF729FA09E000BF2046FDF724FA04E0F8
:102DC00000BF2046FDF71FFA00BF10BD5A000020CB
:102DD0004D0000204E00002070B505460026154825
:102DE000007808B1002070BD00BF4020FDF7FDF95C
:102DF000064600BF10480468006820B10E4800680D
:102E000040680D49086000BF3046FDF7FCF900BF7F
:102E100074B10320207025810020606007A06061EC
:102E2000204601F0C1F821462E20626902F008FD1B
:102E30002046D8E74D000020380000203F00000069
:102E40002DE9F04105460E46144600271DB9042021
:102E50002070BDE8F0812878032802D0012020707E
:102E6000F7E73A48007810B102202070F1E73848BF
:102E7000007810B10D202070EBE700BF4020FDF777
:102E8000B4F9074600BF288950B12889401E28811F
:102E900000BF3846FDF7B7F900BF00202070D8E723
:102EA0002C48006890F8380040F001002949096872
:102EB00081F8380000202749096881F83900254841
:102EC00000684663284601F02BF800BF3846FDF73E
:102ED0009AF900BF01F022FA00BF4020FDF785F902
:102EE000074600BF1B48006890F8390020B1012850
:102EF00009D0022806D102E0002020700BE00E204D
:102F0000207008E000BF29461248006800F0D4FF96
:102F10000A20207000BF00BF00200E49096881F818
:102F200038000C49096881F839000A490968C86104
:102F300008490968086207490968486200BF3846BD
:102F4000FDF761F900BF00BF83E700004D000020DE
:102F50004E0000206000002070B5044600250CB92A
:102F6000042070BD2078032801D00120F9E700BFBC
:102F70004020FDF73AF9054600BFA07A70B1002362
:102F800001221946204600F049FF00BF2846FDF700
:102F90003AF900BF01F0C2F90020E2E720894FF6BC
:102FA000FF71884209D22089401C208100BF284639
:102FB000FDF729F900BF0020D3E700BF2846FDF741
:102FC00022F900BF3320CCE710B50B48007890B948
:102FD00001F0E4F9094800780949087009480749EF
:102FE000097850F821000849086008460068074938
:102FF0000860FDF711F910BD5A00002050000020B4
:103000004F000020B0A600206800002060000020D3
:1030100010B504462046FDF733FD10BD2DE9FE4FE7
:1030200006460F4690461C464FF000093F2C02D939
:103030002A20BDE8FE8F00BF4020FDF7D6F881466C
:1030400000BF3848007830B100BF4846FDF7DBF8D4
:1030500000BF3C20EDE7344850F82400002859D147
:103060000120314941F8240000BF4846FDF7CBF864
:1030700000BF002342463946304600F07DFA8246C2
:1030800000200090019003460246514602902046DF
:1030900001F09AF9054665BB234850F8240008B3AF
:1030A000214951F8240001F04DFF1F4850F8240039
:1030B000C068DFF874C000905CF824C0DCF8083009
:1030C000DFF864C05CF824C09CF83A20DFF858C0F0
:1030D0005CF824C0DCF85410DFF84CC05CF8240025
:1030E00002F05CFB11480078012811D101F016F9BB
:1030F0000EE000BF4020FDF778F8814600BF0020B9
:10310000094941F8240000BF4846FDF77CF800BF9C
:1031100028468EE700BF4846FDF775F800BF282017
:1031200087E700004D000020B0A600205A000020D4
:103130002DE9F04F85B081468A4693461C46DDE96D
:103140000F78129D002003903F2C03D92A2005B050
:10315000BDE8F08F00BF4020FDF747F8039000BFA7
:103160003A48007830B100BF0398FDF74CF800BF33
:103170003C20ECE7364850F8240000285ED10120BE
:10318000334941F8240000BF0398FDF73CF800BF25
:103190002A464146384601F087FA2B465A465146A0
:1031A000484600F0E9F904901198CDE900800295B5
:1031B0003A4620460E9B049901F006F9064666BB86
:1031C000234850F8240008B3214951F8240001F0A5
:1031D000B9FE1F4850F82400C068DFF874C00090A2
:1031E0005CF824C0DCF80830DFF864C05CF824C068
:1031F0009CF83A20DFF858C05CF824C0DCF8541082
:10320000DFF84CC05CF8240002F0C8FA11480078DE
:10321000012811D101F082F80EE000BF4020FCF738
:10322000E4FF039000BF0020094941F8240000BFDB
:103230000398FCF7E8FF00BF304688E700BF03981B
:10324000FCF7E1FF00BF282081E700004D000020CF
:10325000B0A600205A00002010B504462046FDF715
:1032600010FC10BD2DE9F0410546002756480078B6
:1032700010B14020BDE8F0813F2D01D13E20F9E79B
:103280003F2D03D3FF2D01D02A20F3E700BF4020BC
:10329000FCF7ABFF074600BFFF2D03D14B4800688A
:1032A00090F83A504A4850F8254034B900BF3846A3
:1032B000FCF7A9FF00BF4320DCE7012C06D100BFCB
:1032C0003846FCF7A0FF00BF3D20D3E714F83C0FC1
:1032D0004049085C6178884314F83C193D4A5054D1
:1032E000204602F03BFB94F83C003A49085C30B9B8
:1032F00094F83E1038480078884337490870E069F0
:1033000018B12046E16900F0D7FD206A18B12046C7
:10331000216A00F0E8FDE66A16B1304600F07EFE54
:103320000020606384F8380084F839002B48007866
:10333000FF2804D229480078401C2849087000BFA3
:103340003846FCF760FF00BF00F067FD00BF40207B
:10335000FCF74BFF074600BF2048007820B11F480C
:103360000078401E1D490870204600F043F81C48B4
:103370000078401E1A4908700020154941F82500C0
:10338000A06930B9002061698861164960690860E8
:1033900005E0D4E905014861D4E9051088611248C7
:1033A000006860611048046010A0606500BF384686
:1033B000FCF729FF00BF0E480078012801D100F07A
:1033C000ADFF002056E700004D0000206000002007
:1033D000B0A6002052000020510000204E00002026
:1033E0005B0000206C000020640000203F00000013
:1033F0005A00002010B504462046FDF743FB10BDDF
:1034000010B5FDF740FB10BD2DE9F84306460F4609
:1034100015464FF000083F2E05D9FF2E03D02A2075
:103420002870BDE8F88317B90C202870F9E71E480A
:10343000007810B112202870F3E700BF4020FCF79D
:10344000D4FE804600BFFF2E03D11848006890F8D4
:103450003A60174850F826403CB900BF4046FCF798
:10346000D2FE00BF43202870DBE7012C07D100BF4C
:103470004046FCF7C8FE00BF43202870D1E76765CF
:1034800044B1E068009094F83A202046A368616D4A
:1034900002F0B0FA00BF4046FCF7B5FE00BF0020C6
:1034A000287000BFBDE700004D0000206000002034
:1034B000B0A6002010B504462046FDF7E5FA10BD81
:1034C00010B5FDF7E2FA10BD2DE9F04706460C46AF
:1034D0004FF0000A3F2E04D9FF2E02D02A20BDE86B
:1034E000F0870CB90920FAE700202060606000BF77
:1034F0004020FCF77AFE824600BFFF2E03D11C4815
:10350000006890F83A601B4850F8265035B900BF63
:103510005046FCF778FE00BF4320E0E7012D06D1BE
:1035200000BF5046FCF76FFE00BF4320D7E7287C62
:1035300000F0010030B900BF5046FCF764FE00BF48
:103540004520CCE70027D5F80C90D5F8088000BFBF
:103550005046FCF758FE00BF00E07F1C58F8041BE3
:103560000029FAD02760A9EB070060600020B6E7C9
:1035700060000020B0A6002070B504461046001F71
:103580004FF00076051F28462E606A4E051F28461C
:103590002E60694E051F28462E60684E051F28467E
:1035A0002E60674E051F28462E60664E051F284672
:1035B0002E60654E051F28462E60644E051F284666
:1035C0002E604FF08246051F28462E60604E051F74
:1035D00028462E605F4E051F28462E605E4E051F52
:1035E00028462E604FF08146051F28462E605B4E10
:1035F000051F28462E603602051F28462E604FF014
:103600007E56051F28462E600026051F28462E6080
:103610004FF08076051F28462E60051F28462C6037
:103620004F4E051F28462E604FF01236051F2846C4
:103630002E604FF00336051F28462E604FF00236ED
:10364000051F28462E607610051F28462E60051F90
:10365000284629606FF01206051F28462E604FF09D
:103660001136051F28462E604FF01036051F2846DC
:103670002E604FF00936051F28462E604FF00836A1
:10368000051F28462E604FF00736051F28462E607E
:103690004FF00636051F28462E604FF00536051FF1
:1036A00028462E604FF00436051F28462E602D4E0A
:1036B000051F28462E602C4E051F28462E602B4ED7
:1036C000051F28462E602A4E051F28462E60294ECB
:1036D000051F28462E60284E051F28462E60274EBF
:1036E000051F28462E60264E051F28462E60254EB3
:1036F000051F28462E60244E051F28462E60234EA7
:10370000051F28462E60224E051F28462E60214E9A
:10371000051F28462E60204E051F28462E601F4E8E
:10372000051F28462E604FF08346051F28462E6051
:1037300070BD000000007041000060410000504179
:1037400000004041000030410000204100001041D5
:103750000000E0400000C0400000A04000004040E9
:10376000654500080000F8410000F0410000E84114
:103770000000E0410000D8410000D0410000C841F5
:103780000000C0410000B8410000B0410000A84165
:103790000000A041000098410000904100008841D5
:1037A0002DE9F04105464FF000083F2D02D147209A
:1037B000BDE8F0813F2D03D3FF2D01D02A20F7E78C
:1037C00000BF4020FCF711FD804600BFFF2D05D152
:1037D0002448006890F83A50012608E02148006823
:1037E00090F83A00A84201D1012600E000261E48C8
:1037F00050F8254034B900BF4046FCF704FD00BF37
:103800004820D5E7012C06D100BF4046FCF7FBFC61
:1038100000BF4320CCE794F83C701448C05D94F896
:103820003D1088431149C8550846C05D30B994F829
:103830003E100F48007888430D49087094F838000E
:1038400040F0080084F8380000BF4046FCF7DBFC7D
:1038500000BF204602F082F8012E01D100F05EFD8B
:103860000020A5E760000020B0A600205200002044
:103870005100002010B5084909680868FCF7A6FC4B
:10388000FDF704F90548006802F076F80349096875
:103890000868FCF7A4FC10BD600000206800002050
:1038A00070B5054600261C48007800B170BD1B4865
:1038B000007800B1FAE765B300BF4020FCF795FC43
:1038C000064600BF1648006890F83C401548005D69
:1038D0001349096891F83D1088431249085510486A
:1038E000006802F03BF80F48005D40B90C480068E2
:1038F00090F83E100C48007888430B49087008483F
:103900000068456300BF3046FCF77DFC00BF00F057
:1039100005FD00BFCAE700004D0000204E0000205A
:103920006000002052000020510000202DE9F041ED
:1039300007460C4615461E461B48007810B1552018
:10394000BDE8F0811948007808B13220F8E727B9BE
:103950001CB915B90EB95420F2E73B2C01D95120FE
:10396000EEE73B2D01D95220EAE7B6F57A7F01D385
:103970005320E5E7701D642148434FF47A71B0FB92
:10398000F1F14FF461607843C4EB041200EB820064
:10399000284400EBC00202EB001001EB8008404617
:1039A000FFF77EFF0020CBE74D0000204E000020F7
:1039B00070B5002500BF4020FCF717FC054600BF8E
:1039C0000448046800BF2846FCF71DFC00BF2046E1
:1039D00070BD00008000002070B5002600F084F863
:1039E00000BF4020FCF701FC064600BF38480068D5
:1039F000401C3749086008460168212001F0FEFBA1
:103A000000BF3046FCF7FFFB00BF324800780128BA
:103A10005BD13148007820B1012804D0022809D1B7
:103A200003E001250BE0002509E0012501202A49DA
:103A3000087004E0012500202749087000BF00BF7E
:103A400005B970BD254804683BE000BF4020FCF785
:103A5000CCFB064600BF606B68B3606B401E6063C2
:103A6000606B40BB94F8380000F0370040B114F8A8
:103A7000380F00F0C800207001206070383C02E070
:103A8000002084F8390094F8380000F0080090B95C
:103A90003C34A0781249097808431149087020780D
:103AA0001049085C6178084314F83C190D4A5054D9
:103AB000204601F045FF646900BF3046FCF7A3FBD8
:103AC00000BF94F83A003F28BFD100BFB9E700001B
:103AD000800000205A000020700000206C000020B0
:103AE000510000205200002010B5FCF7D0FF07481D
:103AF0000088401C05490880084600880A2803D32E
:103B00000020088000F004F810BD00009C00002098
:103B100010B503480068FFF71FFA0446204610BDA1
:103B200090000020F8B54FF42071284800F098FB71
:103B30003821274800F094FB002514E0681C86B269
:103B400005EB8500214901EBC00406EB860001EB83
:103B5000C00764202070002084F82500E7601DA0C5
:103B60002062681C85B20F2DE8D305EB850017494C
:103B700001EBC00464202070002084F82500E06080
:103B800014A0206200201449086014490880102005
:103B9000134908800D48134908600120FFF71CF9FC
:103BA000114908600020FFF717F9104908606A46BC
:103BB0000FA10D480068FEF743FD6A4611A10B48AE
:103BC0000068FEF73DFD00F027F8F8BD70B000205A
:103BD000F0B400203F000000880000208600002094
:103BE00084000020940000208C0000209000002021
:103BF00075432F4F532D494920546D724C6F636BA1
:103C00000000000075432F4F532D494920546D7219
:103C10005369676E616C000000B587B00320002116
:103C200080220A4BCDE90132CDE903104FF6FD7039
:103C30003D23074A00900748FFF77AFA06AA06A133
:103C40003D20FFF7E1FB07B000BD0000F0B200200F
:103C5000ECB40020DD3C000875432F4F532D49493B
:103C600020546D7200000000F0B50B46032580F86B
:103C70002550012B05D1174EC5693668354445617D
:103C80000CE085692DB9134EC56936683544456128
:103C900004E0104E8569366835444561072645695C
:103CA000B5FBF6F706FB17540B4D05EBC4010D6889
:103CB0002DB908600025C56001258D8006E00A68E1
:103CC0000860C26010618D886D1C8D8000250561C3
:103CD000F0BD000088000020F0B4002008B500BF4F
:103CE00000BF6A4600211B480068FFF7A9F8FFF7EC
:103CF00017F819480068401C174908600846006812
:103D00000721B0FBF1F201FB1208144800EBC807D1
:103D10003C681AE0E668104960690968884213D176
:103D2000204600F01DF894F82400022804D1012157
:103D30002046FFF799FF02E0022084F8250065681D
:103D400015B12046A168A8473446002CE2D1FFF700
:103D50000BF8C6E79000002088000020F0B4002097
:103D6000F0B507264569B5FBF6F706FB17540D4D70
:103D700005EBC4021568854205D1C168116039B1EF
:103D800000250D6104E00169C368CB6003B11961CE
:103D9000012580F825500025C560056195886D1EB8
:103DA0009580F0BDF0B4002010B500BF4020FCF7B6
:103DB0001CFA044600BFFEF7CFFC00BF2046FCF70C
:103DC00022FA00BFFFF708FEFEF7DCFC10BD000082
:103DD00010B5014640224B1E4FF0E0246361094BB1
:103DE000186820F07F4040EA0260186023461B6993
:103DF00043F00503236123461B6943F0020323615B
:103E000010BD000020ED00E030B504466420B4FB96
:103E1000F0F52846FFF7DCFF30BD70472DE9F05F75
:103E200005460F4690469946A87A1F490E5C05F153
:103E30000B00805D11F800B00BEBC60000F0FF0A2C
:103E40001A4850F82A4000202834E0602760207C7F
:103E500020EA0800207484F81190207C283C00F0AF
:103E6000080080B994F83E001149097808431049C8
:103E700008701048805D94F83D1008430D4988553E
:103E8000204601F05DFD2946204600F015F8206A25
:103E900030B12046216A00F026F8002020626562D9
:103EA0005046BDE8F09F0000CE7C0008B0A6002080
:103EB000510000205200002010B590F83C2001F184
:103EC0000B039B5C90F83D40A34301F10B04A3540A
:103ED00023469B5C23B98B7A90F83E40A3438B72B8
:103EE0000023C36110BDF0B5024612F83C4F95782F
:103EF00056783C3A0B4618680FE000F10B073F5D1F
:103F0000B74300F10B0C0CF8047067463F5D17B91E
:103F1000877AAF4387721B1D18680028EDD1F0BD6A
:103F200070B504461D480068C4611C48006890F8DC
:103F30003C1004F10B00405C1849096891F83D10F1
:103F400008431649096891F83C2004F10B01885494
:103F5000A07A1249096891F83E100843A0720F48F0
:103F6000006890F83C500E48405D0C49096891F893
:103F70003D1088430A4948550848006801F0EEFCA6
:103F80000748405D40B90548006890F83E10054874
:103F9000007888430349087070BD0000600000206D
:103FA0005200002051000020014600228A720020A9
:103FB00005E0002301F10B021354421CD0B2082883
:103FC000F7D370472DE9F0415021114800F048F92E
:103FD00000250DE0681C86B20D4800EB051400EBCF
:103FE00006170020207067600AA0E060681C85B298
:103FF000042DEFD3064800EB05140020207060600C
:1040000004A0E060024804490860BDE8F0810000B7
:1040100060A200203F0000003C00002030B50146B7
:104020004A6808682AB9CC68606028B100254560F4
:1040300002E0106000B142608B680025DD6230BD97
:1040400070B5F021134800F00BF9002411E0601C5A
:1040500085B204EB44000F4901EBC00305EB4500BA
:1040600001EBC006002018705E600BA05861601C58
:1040700084B2092CEBD304EB4400064901EBC003E6
:1040800000201870586004A0586108460349086071
:1040900070BD000070A100203F000000380000202B
:1040A00000200B4908600B4908700B4908700B4948
:1040B00008700B4908700B4908600B4908600B49F0
:1040C00008600B4908600B4908700B49087070477D
:1040D000800000204D0000204E0000205B000020EA
:1040E0005A000020340000205C000020480000201E
:1040F000440000204C0000207C00002000210A4ADF
:104100001170002004E00021084A1154411CC8B27B
:104110000828F8D30021064A1170064A1170064A91
:104120001160064A116070475100002052000020C3
:104130004F00002050000020680000206000002098
:1041400070B54FF4FD61194800F08AF84FF48071A2
:10415000174800F085F8002413E0601CC5B2C4EBDA
:10416000C40000EB0410114901EB8003C5EBC5004E
:1041700000EB051001EB80065E610EA05865601C27
:10418000C4B2152CE9D3C4EBC40000EB04100749FA
:1041900001EB80030020586106A058650020064905
:1041A000086002480549086070BD0000B0A7002003
:1041B000B0A600203F0000006C000020640000203A
:1041C00000B587B00320002180220A4BCDE90132DF
:1041D000CDE903104FF6FF703F23074A00900748D0
:1041E000FEF7A6FF06AA06A13F20FFF70DF907B0CC
:1041F00000BD0000B0A40020ACA60020354500089A
:1042000075432F4F532D49492049646C65000000C8
:1042100000B587B00320002180220A4BCDE901328E
:10422000CDE903104FF6FE703E23074A0090074881
:10423000FEF77EFF06AA06A13E20FFF7E5F807B0CD
:1042400000BD0000B0A20020ACA400207D45000805
:1042500075432F4F532D494920537461740000005A
:1042600004E0002200F8012B4A1E91B20029F8D187
:104270007047000070B578211148FFF7F1FF002466
:104280000EE004EB44000E4901EBC005601C00EB9E
:10429000400001EBC00068600AA06861601C84B245
:1042A000042CEED304EB4400054901EBC0050020CB
:1042B000686004A0686108460349086070BD00009A
:1042C00098AF00203F000000740000202DE9F0416D
:1042D00060211048FFF7C4FF00240DE0601C86B287
:1042E00004EB44000B4901EBC00506EB460001EB73
:1042F000C0072F60601C84B2032CEFD304EB440092
:10430000044901EBC0050020286008460249086006
:10431000BDE8F08110B000207800002010B5002426
:1043200000BF4020FBF761FF044600BF144800783F
:10433000F8B914480078E0B900F030F81248134991
:10434000097850F821001249086010480078114996
:10435000097888420DD00E480068006C401C0C495A
:10436000096808640C480068401C0B490860FBF7AA
:104370007FFF00BF2046FBF746FF00BF10BD0000D7
:104380004D0000204E000020B0A60020500000206C
:10439000680000204F000020340000200649074A32
:1043A0001278885C0649095C034A515C01EBC00144
:1043B000044A117070470000CE7C000851000020B4
:1043C00052000020500000202DE9F84F05460F460E
:1043D00090469946DDE90AAB0020009000BF4020DE
:1043E000FBF703FF009000BF4B480468002C7DD012
:1043F00049496069086000BF0098FBF704FF00BFEF
:10440000203444F8207CA576002020766076606118
:1044100044F81CBC44F814AC44F8188C0C9824F8EC
:10442000100C24F80E9C0020E077E810207705F0AF
:104430000700E076217F01208840A077E17E0120FF
:1044400088406077002044F8040C20606060E060E1
:10445000A0602062A0626062E06220632FA06063BF
:10446000203C002606E0002104F1580040F8261008
:10447000701CC6B2002EF6D02046FEF7C9FD00BF64
:104480004020FBF7B2FE009000BF254840F82540D1
:1044900000BF0098FBF7B7FE00BF2046FEF7DCFE2A
:1044A00000BF4020FBF7A1FE009000BF1D48006840
:1044B00060610020A0611B48006810B119480068C5
:1044C0008461184804603C34A0781749097808438F
:1044D0001549087020781549085C6178084314F87C
:1044E0003C19124A50541248007800E00DE0401C7C
:1044F0000F490870204601F023FA00BF0098FBF72F
:1045000082FE00BF0020BDE8F88F00BF0098FBF7D7
:104510007AFE00BF4220F6E7640000203F00000062
:10452000B0A600206C0000205100002052000020A6
:104530005B000020002400BF00BF4020FBF755FEB9
:10454000044600BF06480068401C0549086000BFDB
:104550002046FBF758FE00BFFEF752FFECE70000D5
:104560005C00002010B504480068FEF7A3FFFF20A0
:10457000FEF778FE10BD000060000020002500BF9F
:1045800002E01420FFF78CF9334800780028F8D0B7
:10459000324800686421B0FBF1F0304908600846F9
:1045A000006828B900202E490870FF20FFF7F8F8AE
:1045B00000BF4020FBF719FE054600BF27480068F2
:1045C000642148432749086000BF2846FBF71BFECB
:1045D00000BF00BF0120FFF763F900BF4020FBF7D9
:1045E00004FE054600BF00201E49086000BF2846A3
:1045F000FBF709FE00BF0A20FFF752F900BF402079
:10460000FBF7F3FD054600BF164800681649086031
:1046100000BF2846FBF7F7FD00BF134800680F49AD
:104620000968B0FBF1F040B2C0F1640044B2002C64
:1046300002DB0B490C7009E00020094908700A48A8
:1046400000686421B0FBF1F004490860FEF738FF10
:1046500000F00CF8BEE700004C00002044000020F1
:10466000400000205C000020480000207CB50025B0
:1046700014E069462846FEF727FF064666B9094852
:1046800050F8254044B1012C06D0D4E9020100EBDA
:104690008100E06401982065681CC5B23F2DE8D90F
:1046A0007CBD0000B0A6002002F0010343B102F07F
:1046B00002032BB102E0491E002308C00029FAD1F1
:1046C0007047000070B52DED088B04460D46B0EE26
:1046D000408AF0EE608A94ED040AB0EE409A94EDC0
:1046E000050AF0EE409A94ED060AB0EE40AA002CBE
:1046F00061D0E5B385ED008A95ED040AD5ED000A99
:1047000020EE200A85ED070A95ED000A85ED010AE5
:1047100095ED070A30EE680A84ED000A94ED020A6E
:10472000F2EE040A30EE600A10EE101A0846FBF7AB
:10473000BDFF41EC1B0B9FED210B53EC102BFBF746
:10474000C9FF1DD894ED020AF2EE040A30EE200AE9
:1047500010EE101A0846FBF7A9FF41EC1B0B9FED6A
:10476000170B53EC102BFBF7CDFF09D800E022E02C
:1047700094ED020AD4ED000A30EE200A84ED020A1C
:1047800094ED000A20EE090AD4ED020A09EEA00A0F
:10479000D4ED000A94ED011A70EEC10A0AEE200A67
:1047A00084ED070A94ED000A84ED010A94ED070AEE
:1047B000BDEC088B70BD00BFFAE70000F168E3882C
:1047C000B5F8E43E00B52E4801F0E8F99FED2D0A5A
:1047D0002B4880ED040A9FED2C0A80ED060A2B4839
:1047E00001F0DCF99FED270A284880ED040A2848EB
:1047F00001F0D4F99FED240A254880ED040A2548EC
:1048000001F0CCF99FED1F0A224880ED040A9FEDCC
:104810001E0A80ED050A9FED200A80ED060A1F485A
:1048200001F0BCF99FED170A1C4880ED040A9FEDCA
:10483000160A80ED050A9FED180A80ED060A184851
:1048400001F0ACF99FED0F0A154880ED040A9FEDC9
:104850000E0A80ED050A9FED100A80ED060A114848
:1048600001F09CF99FED070A0E4880ED040A9FEDC8
:10487000060A80ED050A9FED080A80ED060A00BDD4
:10488000CCB900203333333FCDCCCC3D8CB90020A4
:10489000ACB90020ECB900200AD7233C0CBA0020A8
:1048A0002CBA00204CBA002000B58BB03B48006801
:1048B00040F002003949086038481038006840F07C
:1048C0000200364910390860022200213448FCF702
:1048D0005FF9022201213248FCF75AF90222042131
:1048E0002F48FCF755F9022205212D48FCF750F915
:1048F00002208DF8280000208DF82A00332009902E
:1049000002208DF8290009A92548FCF7F9F8254867
:1049100000884FF6F8710840224908800020ADF861
:104920002000ADF81A0044F61F6007900F20ADF884
:10493000180000208DF8220006A91A48083801F056
:1049400063FD01A801F056FD6020ADF804000020D1
:10495000ADF810000120ADF806000020039001A979
:104960001048083801F02AFC01A90E48083801F067
:1049700063FC01A90B48083801F0B0FC01A9094803
:10498000083801F0FBFC07480838008840F00100B7
:104990000449083908800BB000BD000040380240CF
:1049A000000402400804004080ED000B80ED021B73
:1049B00080ED042B80ED063B7047000029B1064ACC
:1049C00012680243044B1A6004E0034A12688243EF
:1049D000014B1A607047000030380240F0B50021EA
:1049E00000220024022500260223324F3F6807F0F0
:1049F0000C0121B1042905D0082937D105E02E4F3B
:104A0000076036E02D4F076033E02A4F3F1F3F68B5
:104A1000C7F38056274F3F1F3F6807F03F036EB133
:104A2000264FB7FBF3F7DFF88CC0ACF1040CDCF8D1
:104A300000C0CCF3881C07FB0CF40CE01E4FB7FB46
:104A4000F3F7DFF870C0ACF1040CDCF800C0CCF375
:104A5000881C07FB0CF4174F3F1F3F68C7F3014743
:104A60007F1C7D00B4FBF5F7076002E0124F076082
:104A700000BF00BF0F4F3F6807F0F0010909104F5A
:104A80007A5C0768D74047600A4F3F6807F4E051F7
:104A9000890A0B4F7A5C4768D7408760054F3F68AB
:104AA00007F46041490B064F7A5C4768D740C760FE
:104AB000F0BD0000083802400024F40040787D0179
:104AC000240000202DE9F04706460F4690469946FF
:104AD00000BFDFF8B4A09AF80000532801D001F01D
:104AE000AFFF00BFEFF311810846202181F3118849
:104AF00000BF00BF244D002400BF04EB440205F1B9
:104B0000180101EBC201496801B903E0641C29697D
:104B1000A142F2DC00BF2969A1422ADD04EB440274
:104B200005F1180141F8326004EB440201EBC201C7
:104B30004F6004EB440205F1180101EBC201C1F81A
:104B40000880002204EB440305F1180101EBC301C6
:104B50000A6104EB440305F1180101EBC301CA60CB
:104B600004EB440205F1180101EBC201C1F81490F5
:104B700001E04FF0FF34C1B281F3118800BF00BFE4
:104B80002046BDE8F08700006CBA00202DE9F05FF8
:104B900005460F469046994600BFDFF864B09BF883
:104BA0000000532801D001F04BFF00BFDFF850A0F8
:104BB000032D1FD2EFF311810846202181F31188C4
:104BC00000BF00BF05EB45020AF1600101EBC20422
:104BD0003DB12760C4F80480C4F808900021216129
:104BE000E1600A996161C1B281F3118800BF00BF21
:104BF000002601E04FF0FF363046BDE8F09F000090
:104C00006CBA00202DE9F74F82B08346174600BFEB
:104C10002648009000980078532801D001F010FF3A
:104C200000BF0BEB4B012148603000EBC106DDF803
:104C30000C903569D6F80CA04FF00008554517D9EF
:104C4000B068441BBC4201D2204600E0384604460E
:104C5000706828440190224648460199FBF750FBB2
:104C6000A044A1443F1B2544B068A84200D10025C0
:104C7000AAEB0504BC4201D2204600E038460446B7
:104C80005CB1706828440190224648460199FBF7C0
:104C900037FBA044A1443F1B2544B8F1000F00D0CE
:104CA0003561404605B0BDE8F08F00006CBA0020C9
:104CB0002DE9F74F82B082461446DDF80CB00AEBBE
:104CC0004A01224800EBC105D5F81090EE686868EB
:104CD00030440190B14528D8A868801B471EA742E0
:104CE0000AD3224659460198FBF70AFB3019E860BF
:104CF000012005B0BDE8F08F4F44A74223D3A86838
:104D0000A0EB0608424659460198FBF7F9FAA4EBD6
:104D100008043CB1686801900BEB08012246019839
:104D2000FBF7EEFAEC600120E3E7A9EB0600471E73
:104D3000A74208D3224659460198FBF7E1FA3019F9
:104D4000E8600120D5E70020D3E7000084BA002006
:104D500070B500F01CFD044600F019FD0546054B3A
:104D6000054A214600F068F84FF0005000F020FCA2
:104D700070BD0000717800087484000870B5EFF30E
:104D800011800646202080F3118800BF00BF28480C
:104D900001F0F8FE05462C462046264A516805E0FB
:104DA000CAB242F0800200F8012BC9097F29F7D866
:104DB00000F8011B044620461E4A916805E0CAB26D
:104DC00042F0800200F8012BC9097F29F7D800F8CA
:104DD000011B04462046174A116905E0CAB242F099
:104DE000800200F8012BC9097F29F7D800F8011BC0
:104DF00004462046002105E0CAB242F0800200F8D5
:104E0000012BC9097F29F7D800F8011B0446182295
:104E10002146284601F0BAFEF0B280F3118800BFA7
:104E200000BF0448406A10B10249486A804770BD1B
:104E30004CDB002024DB0020F8B504460D46164666
:104E40001F4600234FF480520F4910A0FFF73AFE8F
:104E50001049487008464078087600200090087E87
:104E600008230D4A09A1FFF791FE002009490861B6
:104E70000A484068C8600846066244608560476228
:104E800000200870F8BD000024CB00205379735631
:104E90006965770024DB0020B0000020001000E0EE
:104EA0002DE9F04106460F46EFF3118080462020A1
:104EB00080F3118800BF00BF134801F063FE054670
:104EC0002C462046114A1269B11A05E0CAB242F0D6
:104ED000800200F8012BC9097F29F7D800F8011BCF
:104EE000044680223946204601F0E2FD044619229C
:104EF0002146284601F04AFE08F0FF0080F31188A1
:104F000000BF00BFBDE8F0814CDB002024DB0020A7
:104F100070B5EFF311800446202080F3118800BFA4
:104F200000BF074801F02EFE0546112229462846FB
:104F300001F02CFEE0B280F3118800BF00BF70BD0D
:104F40004CDB00202DE9F0410446EFF311800746C9
:104F5000202080F3118800BF00BF114801F012FE2D
:104F600005462E460F480069241A3046214605E0C2
:104F7000CAB242F0800200F8012BC9097F29F7D894
:104F800000F8011B064608223146284601F0FEFDC6
:104F9000F8B280F3118800BF00BFBDE8F0810000C7
:104FA0004CDB002024DB00202DE9F0410446EFF328
:104FB00011800746202080F3118800BF00BF1148F0
:104FC00001F0E0FD05462E460F480069241A3046E0
:104FD000214605E0CAB242F0800200F8012BC9095F
:104FE0007F29F7D800F8011B0646042231462846DF
:104FF00001F0CCFDF8B280F3118800BF00BFBDE81E
:10500000F08100004CDB002024DB00202DE9F04182
:105010000446EFF311800746202080F3118800BF7B
:1050200000BF114801F0AEFD05462E460F4800694D
:10503000241A3046214605E0CAB242F0800200F848
:10504000012BC9097F29F7D800F8011B0646062263
:105050003146284601F09AFDF8B280F3118800BF6E
:1050600000BFBDE8F08100004CDB002024DB002005
:105070002DE9F04104460F46EFF3118080462020D1
:1050800080F3118800BF00BF184801F07BFD064681
:10509000354617480069241A2846214605E0CAB259
:1050A00042F0800200F8012BC9097F29F7D800F8E7
:1050B000011B05462846394605E0CAB242F0800287
:1050C00000F8012BC9097F29F7D800F8011B054614
:1050D00007222946304601F059FD08F0FF0080F311
:1050E000118800BF00BFBDE8F08100004CDB00204C
:1050F00024DB00202DE9F041EFF31180074620204A
:1051000080F3118800BF00BF114801F03BFD044649
:10511000254610480088C0F308062846314605E0B9
:10512000CAB242F0800200F8012BC9097F29F7D8E2
:1051300000F8011B054602222946204601F026FD03
:10514000F8B280F3118800BF00BFBDE8F081000015
:105150004CDB002004ED00E070B5EFF31180044655
:10516000202080F3118800BF00BF074801F00AFD2E
:10517000054603222946284601F008FDE0B280F3E7
:10518000118800BF00BF70BD4CDB002070B5EFF38D
:1051900011800446202080F3118800BF00BF07481B
:1051A00001F0F0FC054612222946284601F0EEFCEB
:1051B000E0B280F3118800BF00BF70BD4CDB00205F
:1051C00070B50C48006A78B10A48006A006858B1A6
:1051D0000849096A0868804704460D462A46214660
:1051E0000D2000F039F804E0034841680C2000F07D
:1051F00005F870BD24DB0020001000E02DE9F0412F
:1052000005460E46EFF311808046202080F311887A
:1052100000BF00BF0F4801F0B5FC044627463846E2
:10522000314605E0CAB242F0800200F8012BC909FC
:105230007F29F7D800F8011B07462A463946204641
:1052400001F0A4FC08F0FF0080F3118800BF00BF4C
:10525000BDE8F0814CDB00202DE9F04706460F4603
:105260009046EFF311808146202080F3118800BF23
:1052700000BF174801F086FC05462C4620463946FB
:1052800005E0CAB242F0800200F8012BC9097F296B
:10529000F7D800F8011B04462046414605E0CAB293
:1052A00042F0800200F8012BC9097F29F7D800F8E5
:1052B000011B044632462146284601F067FC09F0EE
:1052C000FF0080F3118800BF00BFBDE8F087000039
:1052D0004CDB002070B50446EFF31180054620201A
:1052E00080F3118800BF00BF074801F04BFC064661
:1052F00022463146304601F049FCE8B280F311887D
:1053000000BF00BF70BD00004CDB00202DE9F0475E
:1053100006462948006800284CD027480468002722
:1053200003E0246904B902E07F1CB742F9D300BF4F
:10533000002C3AD0EFF311808146202080F31188B1
:1053400000BF00BF1D4801F01DFC804645462846B1
:10535000314605E0CAB242F0800200F8012BC909CB
:105360007F29F7D800F8011B05462846A16805E00B
:10537000CAB242F0800200F8012BC9097F29F7D890
:1053800000F8011B054680222846216801F090FBA9
:10539000054616222946404601F0F8FB09F0FF00B9
:1053A00080F3118800BF00BF00BF1CB1E06808B1E6
:1053B000E0688047BDE8F087B80000204CDB0020A3
:1053C00010B50748006848B10548046800BFE068A8
:1053D00008B1E06880472469002CF8D110BD0000B6
:1053E000B800002070B5EFF311800646202080F34E
:1053F000118800BF00BF0F4801F0C4FB04462546DA
:1054000028460D4A117805E0CAB242F0800200F841
:10541000012BC9097F29F7D800F8011B05461B227B
:105420002946204601F0B2FBF0B280F3118800BF9C
:1054300000BF70BD4CDB0020BC0000202DE9F04116
:105440000446EFF311800546202080F3118800BF49
:1054500000BF0B4801F096FB0746802221463846E4
:1054600001F026FB06460E223146384601F08EFB3F
:10547000E8B280F3118800BF00BFBDE8F0810000F2
:105480004CDB00202DE9F0410546EFF31180074683
:10549000202080F3118800BF00BF3B4801F072FB61
:1054A000064634462046394B2A681B69D11A05E066
:1054B000CAB242F0800200F8012BC9097F29F7D84F
:1054C00000F8011B04462046A96805E0CAB242F074
:1054D000800200F8012BC9097F29F7D800F8011BC9
:1054E000044620222046696801F0E2FA04460922B7
:1054F0002146304601F04AFB34462046234B2A68B9
:105500001B69D11A05E0CAB242F0800200F8012BF3
:10551000C9097F29F7D800F8011B04462046E9682D
:1055200005E0CAB242F0800200F8012BC9097F29C8
:10553000F7D800F8011B04462046296905E0CAB2E5
:1055400042F0800200F8012BC9097F29F7D800F842
:10555000011B04462046002105E0CAB242F0800249
:1055600000F8012BC9097F29F7D800F8011B044670
:1055700015222146304601F009FBF8B280F311886C
:1055800000BF00BFBDE8F0814CDB002024DB002021
:1055900010B50648006A38B10448006A406818B17E
:1055A0000249096A4868804710BD000024DB0020DA
:1055B000014908617047000024DB002001460248D1
:1055C0000069081A7047000024DB002070B5012034
:1055D0003A490870EFF311800446202080F31188C7
:1055E00000BF00BF48780A223549FFF761FBE0B2EF
:1055F00080F3118800BF00BF0A20FFF76BFEEFF3B6
:1056000011800646202080F3118800BF00BF2D487E
:1056100001F0B8FA05462C462046284A516805E0B4
:10562000CAB242F0800200F8012BC9097F29F7D8DD
:1056300000F8011B04462046204A916805E0CAB2E2
:1056400042F0800200F8012BC9097F29F7D800F841
:10565000011B04462046194A116905E0CAB242F00E
:10566000800200F8012BC9097F29F7D800F8011B37
:1056700004462046002105E0CAB242F0800200F84C
:10568000012BC9097F29F7D800F8011B044618220D
:105690002146284601F07AFAF0B280F3118800BF63
:1056A00000BF0648406A10B10449486A8047FFF7C6
:1056B00087FDFFF76DFFFFF795FE70BD24DB00202F
:1056C000578400084CDB002070B5EFF311800546CD
:1056D000202080F3118800BF00BF0A4801F052FA71
:1056E00004460948007838B10B222146204601F0D3
:1056F0004DFA002004490870E8B280F3118800BF19
:1057000000BF70BD4CDB002024DB00202DE9F04100
:105710000546EFF311800646202080F3118800BF74
:1057200000BF194801F02EFA074680222946384664
:1057300001F0BEF904462046012105E0CAB242F05C
:10574000800200F8012BC9097F29F7D800F8011B56
:1057500004462046002105E0CAB242F0800200F86B
:10576000012BC9097F29F7D800F8011B04461A222A
:105770002146384601F00AFAF0B280F3118800BFE2
:1057800000BFBDE8F08100004CDB002070471FB572
:105790006846FFF723F9009804B010BD2DE9F843DF
:1057A00004460D4616461F46DDF820802048D0F8F6
:1057B000FC00A04239D01F480068202804D31E48AE
:1057C000FFF7A4FFBDE8F8831A48006800EB8000EB
:1057D0001A4941F820401748006800EB800001EBAF
:1057E000800045601348006800EB800001EB8000FA
:1057F00006721048006800EB800001EB8000C76073
:105800000C48006800EB800001EB8000C0F81080BD
:1058100008480068401C074908603B463246294654
:105820002046CDF8008000F071F800BFCAE7000004
:10583000B0A60020C0000020C485000830DC002095
:105840002DE9F04106460C46154629462046FFF74D
:1058500027FB2046FFF7B2FE074639463046FFF7E2
:10586000CDFC13480068802804D31248FFF74EFF90
:10587000BDE8F0810E48006800EB40000E4941F899
:1058800020400B48006800EB400001EB80004560C1
:1058900000200749096801EB4101074A02EB810139
:1058A000886003480068401C0149086000BFDFE7CA
:1058B000C400002070850008B0DE002010B5002470
:1058C0001AE004EB44000F4901EB8000806890B9B6
:1058D00004EB44020B4603EB8202516804EB4402E2
:1058E00053F82200FFF7DCFA012004EB4401054ADB
:1058F00002EB81018860641C034800688442E0D3A5
:1059000010BD0000B0DE0020C40000202DE9F041F1
:1059100086B004460D4616461F46DDF83080142139
:1059200001A8FAF706FD0194029503960497CDF8B5
:10593000148001A8FFF7A6FD06B0BDE8F0810000C5
:1059400010B504460448D0F8FC00A04202D020461E
:10595000FFF75CFB10BD0000B0A6002010B50446A8
:105960000448D0F8FC00A04203D004212046FFF7F1
:105970007FFB10BDB0A6002010B504460548D0F846
:10598000FC00A04203D02046FFF70EFB01E0FFF72A
:10599000BFFA10BDB0A6002070B505460E46002423
:1059A00008E004EB4400114951F82000A84200D15E
:1059B00004E0641C0E4800688442F2D300BF0C4827
:1059C0000068844211D204EB4400084901EB8000D6
:1059D000466004EB44020B4603EB8202516804EB81
:1059E000440253F82200FFF75BFA70BDB0DE0020DE
:1059F000C40000202DE9F84305460F46904699461D
:105A0000089E2048D0F8FC00A84239D0002408E0C5
:105A100004EB84001C4951F82000A84200D104E0A6
:105A2000641C1A4800688442F2D300BF174800681B
:105A300084421ED204EB8400134901EB80004760CE
:105A400004EB840001EB800080F8088004EB840004
:105A500001EB8000C0F80C9004EB840001EB8000A7
:105A600006614B464246394628460096FFF74EFFF0
:105A700006E04B464246394628460096FFF78EFE22
:105A8000BDE8F883B0A6002030DC0020C000002074
:105A900000BF0549098801F080010029F9D0C0F351
:105AA0000801014A918070470010014010B5FCF7D1
:105AB00009FB10BD0CB50020019000903348006830
:105AC00040F480303149086000BF3048006800F47D
:105AD000003000900198401C0190009818B901987E
